{
  "address": "0x57bCA94DD71A03Fb2A10Bb6aC64e151AA102ff62",
  "abi": [
    {
      "inputs": [
        {
          "internalType": "address",
          "name": "hub",
          "type": "address"
        },
        {
          "internalType": "address",
          "name": "actionModule",
          "type": "address"
        }
      ],
      "stateMutability": "nonpayable",
      "type": "constructor"
    },
    {
      "inputs": [],
      "name": "Initialized",
      "type": "error"
    },
    {
      "inputs": [],
      "name": "InvalidOwner",
      "type": "error"
    },
    {
      "inputs": [],
      "name": "InvalidParameter",
      "type": "error"
    },
    {
      "inputs": [],
      "name": "NonERC721ReceiverImplementer",
      "type": "error"
    },
    {
      "inputs": [],
      "name": "NotActionModule",
      "type": "error"
    },
    {
      "inputs": [],
      "name": "NotOwnerOrApproved",
      "type": "error"
    },
    {
      "inputs": [],
      "name": "NotProfileOwner",
      "type": "error"
    },
    {
      "inputs": [],
      "name": "TokenDoesNotExist",
      "type": "error"
    },
    {
      "anonymous": false,
      "inputs": [
        {
          "indexed": true,
          "internalType": "address",
          "name": "owner",
          "type": "address"
        },
        {
          "indexed": true,
          "internalType": "address",
          "name": "approved",
          "type": "address"
        },
        {
          "indexed": true,
          "internalType": "uint256",
          "name": "tokenId",
          "type": "uint256"
        }
      ],
      "name": "Approval",
      "type": "event"
    },
    {
      "anonymous": false,
      "inputs": [
        {
          "indexed": true,
          "internalType": "address",
          "name": "owner",
          "type": "address"
        },
        {
          "indexed": true,
          "internalType": "address",
          "name": "operator",
          "type": "address"
        },
        {
          "indexed": false,
          "internalType": "bool",
          "name": "approved",
          "type": "bool"
        }
      ],
      "name": "ApprovalForAll",
      "type": "event"
    },
    {
      "anonymous": false,
      "inputs": [
        {
          "indexed": false,
          "internalType": "string",
          "name": "uri",
          "type": "string"
        }
      ],
      "name": "ContractURIUpdated",
      "type": "event"
    },
    {
      "anonymous": false,
      "inputs": [
        {
          "indexed": true,
          "internalType": "address",
          "name": "previousOwner",
          "type": "address"
        },
        {
          "indexed": true,
          "internalType": "address",
          "name": "newOwner",
          "type": "address"
        }
      ],
      "name": "OwnershipTransferred",
      "type": "event"
    },
    {
      "anonymous": false,
      "inputs": [
        {
          "indexed": true,
          "internalType": "address",
          "name": "from",
          "type": "address"
        },
        {
          "indexed": true,
          "internalType": "address",
          "name": "to",
          "type": "address"
        },
        {
          "indexed": true,
          "internalType": "uint256",
          "name": "tokenId",
          "type": "uint256"
        }
      ],
      "name": "Transfer",
      "type": "event"
    },
    {
      "inputs": [],
      "name": "ACTION_MODULE",
      "outputs": [
        {
          "internalType": "address",
          "name": "",
          "type": "address"
        }
      ],
      "stateMutability": "view",
      "type": "function"
    },
    {
      "inputs": [],
      "name": "HUB",
      "outputs": [
        {
          "internalType": "address",
          "name": "",
          "type": "address"
        }
      ],
      "stateMutability": "view",
      "type": "function"
    },
    {
      "inputs": [
        {
          "internalType": "address",
          "name": "to",
          "type": "address"
        },
        {
          "internalType": "uint256",
          "name": "tokenId",
          "type": "uint256"
        }
      ],
      "name": "approve",
      "outputs": [],
      "stateMutability": "nonpayable",
      "type": "function"
    },
    {
      "inputs": [
        {
          "internalType": "address",
          "name": "owner",
          "type": "address"
        }
      ],
      "name": "balanceOf",
      "outputs": [
        {
          "internalType": "uint256",
          "name": "",
          "type": "uint256"
        }
      ],
      "stateMutability": "view",
      "type": "function"
    },
    {
      "inputs": [
        {
          "internalType": "uint256",
          "name": "tokenId",
          "type": "uint256"
        }
      ],
      "name": "burn",
      "outputs": [],
      "stateMutability": "nonpayable",
      "type": "function"
    },
    {
      "inputs": [],
      "name": "contractURI",
      "outputs": [
        {
          "internalType": "string",
          "name": "",
          "type": "string"
        }
      ],
      "stateMutability": "view",
      "type": "function"
    },
    {
      "inputs": [
        {
          "internalType": "uint256",
          "name": "tokenId",
          "type": "uint256"
        }
      ],
      "name": "exists",
      "outputs": [
        {
          "internalType": "bool",
          "name": "",
          "type": "bool"
        }
      ],
      "stateMutability": "view",
      "type": "function"
    },
    {
      "inputs": [
        {
          "internalType": "uint256",
          "name": "tokenId",
          "type": "uint256"
        }
      ],
      "name": "getApproved",
      "outputs": [
        {
          "internalType": "address",
          "name": "",
          "type": "address"
        }
      ],
      "stateMutability": "view",
      "type": "function"
    },
    {
      "inputs": [],
      "name": "getDomainSeparator",
      "outputs": [
        {
          "internalType": "bytes32",
          "name": "",
          "type": "bytes32"
        }
      ],
      "stateMutability": "view",
      "type": "function"
    },
    {
      "inputs": [],
      "name": "getSourcePublicationPointer",
      "outputs": [
        {
          "internalType": "uint256",
          "name": "",
          "type": "uint256"
        },
        {
          "internalType": "uint256",
          "name": "",
          "type": "uint256"
        }
      ],
      "stateMutability": "view",
      "type": "function"
    },
    {
      "inputs": [
        {
          "internalType": "uint256",
          "name": "profileId",
          "type": "uint256"
        },
        {
          "internalType": "uint256",
          "name": "pubId",
          "type": "uint256"
        },
        {
          "internalType": "string",
          "name": "tokenName",
          "type": "string"
        },
        {
          "internalType": "string",
          "name": "tokenSymbol",
          "type": "string"
        },
        {
          "internalType": "uint16",
          "name": "royalty",
          "type": "uint16"
        }
      ],
      "name": "initialize",
      "outputs": [],
      "stateMutability": "nonpayable",
      "type": "function"
    },
    {
      "inputs": [
        {
          "internalType": "address",
          "name": "owner",
          "type": "address"
        },
        {
          "internalType": "address",
          "name": "operator",
          "type": "address"
        }
      ],
      "name": "isApprovedForAll",
      "outputs": [
        {
          "internalType": "bool",
          "name": "",
          "type": "bool"
        }
      ],
      "stateMutability": "view",
      "type": "function"
    },
    {
      "inputs": [
        {
          "internalType": "address",
          "name": "to",
          "type": "address"
        }
      ],
      "name": "mint",
      "outputs": [
        {
          "internalType": "uint256",
          "name": "",
          "type": "uint256"
        }
      ],
      "stateMutability": "nonpayable",
      "type": "function"
    },
    {
      "inputs": [
        {
          "internalType": "uint256",
          "name": "tokenId",
          "type": "uint256"
        }
      ],
      "name": "mintTimestampOf",
      "outputs": [
        {
          "internalType": "uint256",
          "name": "",
          "type": "uint256"
        }
      ],
      "stateMutability": "view",
      "type": "function"
    },
    {
      "inputs": [],
      "name": "name",
      "outputs": [
        {
          "internalType": "string",
          "name": "",
          "type": "string"
        }
      ],
      "stateMutability": "view",
      "type": "function"
    },
    {
      "inputs": [
        {
          "internalType": "address",
          "name": "signer",
          "type": "address"
        }
      ],
      "name": "nonces",
      "outputs": [
        {
          "internalType": "uint256",
          "name": "",
          "type": "uint256"
        }
      ],
      "stateMutability": "view",
      "type": "function"
    },
    {
      "inputs": [],
      "name": "owner",
      "outputs": [
        {
          "internalType": "address",
          "name": "",
          "type": "address"
        }
      ],
      "stateMutability": "view",
      "type": "function"
    },
    {
      "inputs": [
        {
          "internalType": "uint256",
          "name": "tokenId",
          "type": "uint256"
        }
      ],
      "name": "ownerOf",
      "outputs": [
        {
          "internalType": "address",
          "name": "",
          "type": "address"
        }
      ],
      "stateMutability": "view",
      "type": "function"
    },
    {
      "inputs": [],
      "name": "renounceOwnership",
      "outputs": [],
      "stateMutability": "nonpayable",
      "type": "function"
    },
    {
      "inputs": [
        {
          "internalType": "uint256",
          "name": "tokenId",
          "type": "uint256"
        },
        {
          "internalType": "uint256",
          "name": "salePrice",
          "type": "uint256"
        }
      ],
      "name": "royaltyInfo",
      "outputs": [
        {
          "internalType": "address",
          "name": "",
          "type": "address"
        },
        {
          "internalType": "uint256",
          "name": "",
          "type": "uint256"
        }
      ],
      "stateMutability": "view",
      "type": "function"
    },
    {
      "inputs": [
        {
          "internalType": "address",
          "name": "from",
          "type": "address"
        },
        {
          "internalType": "address",
          "name": "to",
          "type": "address"
        },
        {
          "internalType": "uint256",
          "name": "tokenId",
          "type": "uint256"
        }
      ],
      "name": "safeTransferFrom",
      "outputs": [],
      "stateMutability": "nonpayable",
      "type": "function"
    },
    {
      "inputs": [
        {
          "internalType": "address",
          "name": "from",
          "type": "address"
        },
        {
          "internalType": "address",
          "name": "to",
          "type": "address"
        },
        {
          "internalType": "uint256",
          "name": "tokenId",
          "type": "uint256"
        },
        {
          "internalType": "bytes",
          "name": "_data",
          "type": "bytes"
        }
      ],
      "name": "safeTransferFrom",
      "outputs": [],
      "stateMutability": "nonpayable",
      "type": "function"
    },
    {
      "inputs": [
        {
          "internalType": "address",
          "name": "operator",
          "type": "address"
        },
        {
          "internalType": "bool",
          "name": "approved",
          "type": "bool"
        }
      ],
      "name": "setApprovalForAll",
      "outputs": [],
      "stateMutability": "nonpayable",
      "type": "function"
    },
    {
      "inputs": [
        {
          "internalType": "string",
          "name": "uri",
          "type": "string"
        }
      ],
      "name": "setContractURI",
      "outputs": [],
      "stateMutability": "nonpayable",
      "type": "function"
    },
    {
      "inputs": [
        {
          "internalType": "uint256",
          "name": "royaltiesInBasisPoints",
          "type": "uint256"
        }
      ],
      "name": "setRoyalty",
      "outputs": [],
      "stateMutability": "nonpayable",
      "type": "function"
    },
    {
      "inputs": [
        {
          "internalType": "bytes4",
          "name": "interfaceId",
          "type": "bytes4"
        }
      ],
      "name": "supportsInterface",
      "outputs": [
        {
          "internalType": "bool",
          "name": "",
          "type": "bool"
        }
      ],
      "stateMutability": "view",
      "type": "function"
    },
    {
      "inputs": [],
      "name": "symbol",
      "outputs": [
        {
          "internalType": "string",
          "name": "",
          "type": "string"
        }
      ],
      "stateMutability": "view",
      "type": "function"
    },
    {
      "inputs": [
        {
          "internalType": "uint256",
          "name": "tokenId",
          "type": "uint256"
        }
      ],
      "name": "tokenDataOf",
      "outputs": [
        {
          "components": [
            {
              "internalType": "address",
              "name": "owner",
              "type": "address"
            },
            {
              "internalType": "uint96",
              "name": "mintTimestamp",
              "type": "uint96"
            }
          ],
          "internalType": "struct Types.TokenData",
          "name": "",
          "type": "tuple"
        }
      ],
      "stateMutability": "view",
      "type": "function"
    },
    {
      "inputs": [
        {
          "internalType": "uint256",
          "name": "tokenId",
          "type": "uint256"
        }
      ],
      "name": "tokenURI",
      "outputs": [
        {
          "internalType": "string",
          "name": "",
          "type": "string"
        }
      ],
      "stateMutability": "view",
      "type": "function"
    },
    {
      "inputs": [],
      "name": "totalSupply",
      "outputs": [
        {
          "internalType": "uint256",
          "name": "",
          "type": "uint256"
        }
      ],
      "stateMutability": "view",
      "type": "function"
    },
    {
      "inputs": [
        {
          "internalType": "address",
          "name": "from",
          "type": "address"
        },
        {
          "internalType": "address",
          "name": "to",
          "type": "address"
        },
        {
          "internalType": "uint256",
          "name": "tokenId",
          "type": "uint256"
        }
      ],
      "name": "transferFrom",
      "outputs": [],
      "stateMutability": "nonpayable",
      "type": "function"
    },
    {
      "inputs": [
        {
          "internalType": "address",
          "name": "newOwner",
          "type": "address"
        }
      ],
      "name": "transferOwnership",
      "outputs": [],
      "stateMutability": "nonpayable",
      "type": "function"
    }
  ],
  "transactionHash": "0xdbfcba532b846898c09539c7c6c1e493cfbb83f6a51e3a94a40047a5b1c2c3de",
  "args": [
    "0xA2574D9DdB6A325Ad2Be838Bd854228B80215148",
    "0xd935e230819AE963626B31f292623106A3dc3B19"
  ],
  "numDeployments": 8,
  "solcInputHash": "a0561f1f72fabc54559d8989476d7494",
  "bytecode": "0x60c06040523480156200001157600080fd5b5060405162002c4838038062002c488339810160408190526200003491620000e8565b6001600160a01b0381166080526200004c3362000079565b6001600160a01b03821660a052600f805460ff19166001179055620000718162000079565b505062000120565b600b80546001600160a01b038381166001600160a01b0319831681179093556040519116919082907f8be0079c531659141344cd1fd0a4f28419497f9722a3daafe3b4186f6b6457e090600090a35050565b80516001600160a01b0381168114620000e357600080fd5b919050565b60008060408385031215620000fc57600080fd5b6200010783620000cb565b91506200011760208401620000cb565b90509250929050565b60805160a051612ad1620001776000396000818161045f0152818161093301528181610f2901528181611031015281816117d80152818161188f0152611a210152600081816102fb0152610b630152612ad16000f3fe608060405234801561001057600080fd5b50600436106101f05760003560e01c80636a6278421161010f578063a4c52b86116100a2578063e8a3d48511610071578063e8a3d485146104f9578063e985e9c514610501578063ed24911d1461054a578063f2fde38b1461055257600080fd5b8063a4c52b861461045a578063b88d4fde14610481578063c0da9bcd14610494578063c87b56dd146104e657600080fd5b80638da5cb5b116100de5780638da5cb5b1461040e578063938e3d7b1461042c57806395d89b411461043f578063a22cb4651461044757600080fd5b80636a627842146103aa57806370a08231146103bd578063715018a6146103d05780637ecebe00146103d857600080fd5b8063397a2a881161018757806342966c681161015657806342966c681461035e5780634f558e791461037157806350ddf35c146103845780636352211e1461039757600080fd5b8063397a2a88146102f65780633a755ed11461031d5780634209a2e11461033857806342842e0e1461034b57600080fd5b806318160ddd116101c357806318160ddd1461027f57806323b872dd146102915780632a55205a146102a457806337d09588146102e357600080fd5b806301ffc9a7146101f557806306fdde031461021d578063081812fc14610232578063095ea7b31461026a575b600080fd5b610208610203366004612271565b610565565b60405190151581526020015b60405180910390f35b610225610585565b60405161021491906122fc565b61024561024036600461230f565b610669565b60405173ffffffffffffffffffffffffffffffffffffffff9091168152602001610214565b61027d61027836600461234a565b6106ed565b005b6008545b604051908152602001610214565b61027d61029f366004612376565b6107fc565b6102b76102b23660046123b7565b610847565b6040805173ffffffffffffffffffffffffffffffffffffffff9093168352602083019190915201610214565b61027d6102f13660046124fb565b610868565b6102457f000000000000000000000000000000000000000000000000000000000000000081565b600c54600d5460408051928352602083019190915201610214565b61027d61034636600461230f565b6109c6565b61027d610359366004612376565b6109db565b61027d61036c36600461230f565b6109f6565b61020861037f36600461230f565b610a3f565b61028361039236600461230f565b610a6b565b6102456103a536600461230f565b610aed565b6102836103b836600461258e565b610b49565b6102836103cb36600461258e565b610bcf565b61027d610c47565b6102836103e636600461258e565b73ffffffffffffffffffffffffffffffffffffffff166000908152600a602052604090205490565b600b5473ffffffffffffffffffffffffffffffffffffffff16610245565b61027d61043a3660046125ab565b610c5b565b610225610caa565b61027d6104553660046125ee565b610d07565b6102457f000000000000000000000000000000000000000000000000000000000000000081565b61027d61048f366004612627565b610d65565b6104a76104a236600461230f565b610db7565b60408051825173ffffffffffffffffffffffffffffffffffffffff1681526020928301516bffffffffffffffffffffffff169281019290925201610214565b6102256104f436600461230f565b610e88565b610225610fc8565b61020861050f3660046126a7565b73ffffffffffffffffffffffffffffffffffffffff918216600090815260056020908152604080832093909416825291909152205460ff1690565b6102836110d0565b61027d61056036600461258e565b6110da565b600061057082611193565b8061057f575061057f8261122b565b92915050565b6060600060108054610596906126d5565b9050116105d8576105a8600c546113f2565b6105b3600d546113f2565b6040516020016105c4929190612728565b604051602081830303815290604052905090565b601080546105e5906126d5565b80601f0160208091040260200160405190810160405280929190818152602001828054610611906126d5565b801561065e5780601f106106335761010080835404028352916020019161065e565b820191906000526020600020905b81548152906001019060200180831161064157829003601f168201915b50505050505b905090565b60008181526002602052604081205473ffffffffffffffffffffffffffffffffffffffff166106c4576040517fceea21b600000000000000000000000000000000000000000000000000000000815260040160405180910390fd5b5060009081526004602052604090205473ffffffffffffffffffffffffffffffffffffffff1690565b60006106f882610aed565b90508073ffffffffffffffffffffffffffffffffffffffff168373ffffffffffffffffffffffffffffffffffffffff160361075f576040517f613970e000000000000000000000000000000000000000000000000000000000815260040160405180910390fd5b3373ffffffffffffffffffffffffffffffffffffffff8216148015906107b6575073ffffffffffffffffffffffffffffffffffffffff8116600090815260056020908152604080832033845290915290205460ff16155b156107ed576040517fdb1453ce00000000000000000000000000000000000000000000000000000000815260040160405180910390fd5b6107f783836114b0565b505050565b6108063382611550565b61083c576040517fdb1453ce00000000000000000000000000000000000000000000000000000000815260040160405180910390fd5b6107f7838383611610565b60008061085384611795565b61085d858561190f565b915091509250929050565b600f5460ff16156108a5576040517f5daa87a000000000000000000000000000000000000000000000000000000000815260040160405180910390fd5b600f80547fffffffffffffffffffffffffffffffffffffffffffffffffffffffffffffff001660011790556108dd61ffff8216611938565b600c859055600d84905560106108f384826127f1565b50601161090083826127f1565b506040517f6352211e000000000000000000000000000000000000000000000000000000008152600481018690526000907f000000000000000000000000000000000000000000000000000000000000000073ffffffffffffffffffffffffffffffffffffffff1690636352211e90602401602060405180830381865afa15801561098f573d6000803e3d6000fd5b505050506040513d601f19601f820116820180604052508101906109b3919061290b565b90506109be8161197d565b505050505050565b6109cf816119f4565b6109d881611938565b50565b6107f783838360405180602001604052806000815250610d65565b610a003382611550565b610a36576040517fdb1453ce00000000000000000000000000000000000000000000000000000000815260040160405180910390fd5b6109d881611afb565b60008181526002602052604081205473ffffffffffffffffffffffffffffffffffffffff16151561057f565b6000818152600260205260408120547401000000000000000000000000000000000000000090046bffffffffffffffffffffffff16808203610ad9576040517fceea21b600000000000000000000000000000000000000000000000000000000815260040160405180910390fd5b6bffffffffffffffffffffffff1692915050565b60008181526002602052604081205473ffffffffffffffffffffffffffffffffffffffff168061057f576040517fceea21b600000000000000000000000000000000000000000000000000000000815260040160405180910390fd5b60003373ffffffffffffffffffffffffffffffffffffffff7f00000000000000000000000000000000000000000000000000000000000000001614610bba576040517fbf15b84400000000000000000000000000000000000000000000000000000000815260040160405180910390fd5b600e80546001019081905561057f8382611ba8565b600073ffffffffffffffffffffffffffffffffffffffff8216610c1e576040517f613970e000000000000000000000000000000000000000000000000000000000815260040160405180910390fd5b5073ffffffffffffffffffffffffffffffffffffffff1660009081526003602052604090205490565b610c4f611cc3565b610c59600061197d565b565b610c63611cc3565b6012610c6f82826127f1565b507f905d981207a7d0b6c62cc46ab0be2a076d0298e4a86d0ab79882dbd01ac3737881604051610c9f91906122fc565b60405180910390a150565b6060600060118054610cbb906126d5565b905011610cfa575060408051808201909152600c81527f4c454e532d434f4c4c4543540000000000000000000000000000000000000000602082015290565b601180546105e5906126d5565b3373ffffffffffffffffffffffffffffffffffffffff831603610d56576040517f613970e000000000000000000000000000000000000000000000000000000000815260040160405180910390fd5b610d61338383611d44565b5050565b610d6f3383611550565b610da5576040517fdb1453ce00000000000000000000000000000000000000000000000000000000815260040160405180910390fd5b610db184848484611ddc565b50505050565b604080518082019091526000808252602082015260008281526002602052604090205473ffffffffffffffffffffffffffffffffffffffff16610e26576040517fceea21b600000000000000000000000000000000000000000000000000000000815260040160405180910390fd5b5060009081526002602090815260409182902082518084019093525473ffffffffffffffffffffffffffffffffffffffff811683527401000000000000000000000000000000000000000090046bffffffffffffffffffffffff169082015290565b60008181526002602052604090205460609073ffffffffffffffffffffffffffffffffffffffff16610ee6576040517fceea21b600000000000000000000000000000000000000000000000000000000815260040160405180910390fd5b600c54600d546040517fb5a3149600000000000000000000000000000000000000000000000000000000815273ffffffffffffffffffffffffffffffffffffffff7f0000000000000000000000000000000000000000000000000000000000000000169263b5a3149692610f6592600401918252602082015260400190565b600060405180830381865afa158015610f82573d6000803e3d6000fd5b505050506040513d6000823e601f3d9081017fffffffffffffffffffffffffffffffffffffffffffffffffffffffffffffffe016820160405261057f9190810190612928565b6060600060128054610fd9906126d5565b90501115610fee57601280546105e5906126d5565b600c54600d546040517fb5a3149600000000000000000000000000000000000000000000000000000000815273ffffffffffffffffffffffffffffffffffffffff7f0000000000000000000000000000000000000000000000000000000000000000169263b5a314969261106d92600401918252602082015260400190565b600060405180830381865afa15801561108a573d6000803e3d6000fd5b505050506040513d6000823e601f3d9081017fffffffffffffffffffffffffffffffffffffffffffffffffffffffffffffffe01682016040526106649190810190612928565b6000610664611e29565b6110e2611cc3565b73ffffffffffffffffffffffffffffffffffffffff811661118a576040517f08c379a000000000000000000000000000000000000000000000000000000000815260206004820152602660248201527f4f776e61626c653a206e6577206f776e657220697320746865207a65726f206160448201527f646472657373000000000000000000000000000000000000000000000000000060648201526084015b60405180910390fd5b6109d88161197d565b60007fffffffff0000000000000000000000000000000000000000000000000000000082167f2a55205a00000000000000000000000000000000000000000000000000000000148061057f57507fffffffff0000000000000000000000000000000000000000000000000000000082167f01ffc9a7000000000000000000000000000000000000000000000000000000001492915050565b60007fffffffff0000000000000000000000000000000000000000000000000000000082167f80ac58cd0000000000000000000000000000000000000000000000000000000014806112be57507fffffffff0000000000000000000000000000000000000000000000000000000082167fc744eb3500000000000000000000000000000000000000000000000000000000145b8061130a57507fffffffff0000000000000000000000000000000000000000000000000000000082167f42966c6800000000000000000000000000000000000000000000000000000000145b8061135657507fffffffff0000000000000000000000000000000000000000000000000000000082167f93ea2f1d00000000000000000000000000000000000000000000000000000000145b806113a257507fffffffff0000000000000000000000000000000000000000000000000000000082167f5b5e139f00000000000000000000000000000000000000000000000000000000145b8061057f57507f01ffc9a7000000000000000000000000000000000000000000000000000000007fffffffff0000000000000000000000000000000000000000000000000000000083161461057f565b606060006113ff83611fc4565b600101905060008167ffffffffffffffff81111561141f5761141f6123d9565b6040519080825280601f01601f191660200182016040528015611449576020820181803683370190505b5090508181016020015b7fffffffffffffffffffffffffffffffffffffffffffffffffffffffffffffffff017f3031323334353637383961626364656600000000000000000000000000000000600a86061a8153600a850494508461145357509392505050565b600081815260046020526040902080547fffffffffffffffffffffffff00000000000000000000000000000000000000001673ffffffffffffffffffffffffffffffffffffffff8416908117909155819061150a82610aed565b73ffffffffffffffffffffffffffffffffffffffff167f8c5be1e5ebec7d5bd14f71427d1e84f3dd0314c0f7b2291e5b200ac8c7c3b92560405160405180910390a45050565b60008061155c83610aed565b90508073ffffffffffffffffffffffffffffffffffffffff168473ffffffffffffffffffffffffffffffffffffffff1614806115cb57508373ffffffffffffffffffffffffffffffffffffffff166115b384610669565b73ffffffffffffffffffffffffffffffffffffffff16145b80611608575073ffffffffffffffffffffffffffffffffffffffff80821660009081526005602090815260408083209388168352929052205460ff165b949350505050565b8273ffffffffffffffffffffffffffffffffffffffff1661163082610aed565b73ffffffffffffffffffffffffffffffffffffffff161461167d576040517f49e27cff00000000000000000000000000000000000000000000000000000000815260040160405180910390fd5b73ffffffffffffffffffffffffffffffffffffffff82166116ca576040517f613970e000000000000000000000000000000000000000000000000000000000815260040160405180910390fd5b6116d56000826114b0565b73ffffffffffffffffffffffffffffffffffffffff808416600081815260036020908152604080832080547fffffffffffffffffffffffffffffffffffffffffffffffffffffffffffffffff01905593861680835284832080546001019055858352600290915283822080547fffffffffffffffffffffffff000000000000000000000000000000000000000016821790559251849392917fddf252ad1be2c89b69c2b068fc378daa952ba7f163c4a11628f55a4df523b3ef91a4505050565b600c546040517f4f558e7900000000000000000000000000000000000000000000000000000000815260009173ffffffffffffffffffffffffffffffffffffffff7f00000000000000000000000000000000000000000000000000000000000000001691634f558e799161180f9160040190815260200190565b602060405180830381865afa15801561182c573d6000803e3d6000fd5b505050506040513d601f19601f82011682018060405250810190611850919061299f565b61185c57506000919050565b600c546040517f6352211e00000000000000000000000000000000000000000000000000000000815260048101919091527f000000000000000000000000000000000000000000000000000000000000000073ffffffffffffffffffffffffffffffffffffffff1690636352211e90602401602060405180830381865afa1580156118eb573d6000803e3d6000fd5b505050506040513d601f19601f8201168201806040525081019061057f919061290b565b600061271061191d60135490565b61192790846129bc565b61193191906129fa565b9392505050565b612710811115611974576040517f613970e000000000000000000000000000000000000000000000000000000000815260040160405180910390fd5b6109d881601355565b600b805473ffffffffffffffffffffffffffffffffffffffff8381167fffffffffffffffffffffffff0000000000000000000000000000000000000000831681179093556040519116919082907f8be0079c531659141344cd1fd0a4f28419497f9722a3daafe3b4186f6b6457e090600090a35050565b600c546040517f6352211e00000000000000000000000000000000000000000000000000000000815233917f000000000000000000000000000000000000000000000000000000000000000073ffffffffffffffffffffffffffffffffffffffff1691636352211e91611a6d9160040190815260200190565b602060405180830381865afa158015611a8a573d6000803e3d6000fd5b505050506040513d601f19601f82011682018060405250810190611aae919061290b565b73ffffffffffffffffffffffffffffffffffffffff16146109d8576040517ff194fae500000000000000000000000000000000000000000000000000000000815260040160405180910390fd5b6000611b0682610aed565b9050611b136000836114b0565b73ffffffffffffffffffffffffffffffffffffffff8116600081815260036020908152604080832080547fffffffffffffffffffffffffffffffffffffffffffffffffffffffffffffffff9081019091556008805490910190558583526002909152808220829055518492907fddf252ad1be2c89b69c2b068fc378daa952ba7f163c4a11628f55a4df523b3ef908390a45050565b73ffffffffffffffffffffffffffffffffffffffff82161580611bee575060008181526002602052604090205473ffffffffffffffffffffffffffffffffffffffff1615155b15611c25576040517f613970e000000000000000000000000000000000000000000000000000000000815260040160405180910390fd5b73ffffffffffffffffffffffffffffffffffffffff821660008181526003602090815260408083208054600190810190915560088054909101905584835260029091528082206bffffffffffffffffffffffff421674010000000000000000000000000000000000000000028417905551839291907fddf252ad1be2c89b69c2b068fc378daa952ba7f163c4a11628f55a4df523b3ef908290a45050565b600b5473ffffffffffffffffffffffffffffffffffffffff163314610c59576040517f08c379a000000000000000000000000000000000000000000000000000000000815260206004820181905260248201527f4f776e61626c653a2063616c6c6572206973206e6f7420746865206f776e65726044820152606401611181565b73ffffffffffffffffffffffffffffffffffffffff83811660008181526005602090815260408083209487168084529482529182902080547fffffffffffffffffffffffffffffffffffffffffffffffffffffffffffffff001686151590811790915591519182527f17307eab39ab6107e8899845ad3d59bd9653f200f220920489ca2b5937696c31910160405180910390a3505050565b611de7848484611610565b611df3848484846120a6565b610db1576040517f85d5821e00000000000000000000000000000000000000000000000000000000815260040160405180910390fd5b60003073db46d1dc155634fbc732f92e853b10b288ad5a1d148015611e4e5750608946145b15611e7857507fbf9544cf7d7a0338fc4f071be35409a61e51e9caef559305410ad74e16a05f2d90565b7f8b73c3c69bb8fe3d512ecc4cf759cc79239f7b179b0ffacaa9a75d522b39400f3073ffffffffffffffffffffffffffffffffffffffff166306fdde036040518163ffffffff1660e01b8152600401600060405180830381865afa158015611ee4573d6000803e3d6000fd5b505050506040513d6000823e601f3d9081017fffffffffffffffffffffffffffffffffffffffffffffffffffffffffffffffe0168201604052611f2a9190810190612928565b8051602091820120604080518082018252600181527f320000000000000000000000000000000000000000000000000000000000000090840152805192830193909352918101919091527fad7c5bef027816a800da1736444fb58a807ef4c9603b7848673f7e3a68eb14a560608201524660808201523060a082015260c00160405160208183030381529060405280519060200120905090565b6000807a184f03e93ff9f4daa797ed6e38ed64bf6a1f010000000000000000831061200d577a184f03e93ff9f4daa797ed6e38ed64bf6a1f010000000000000000830492506040015b6d04ee2d6d415b85acef81000000008310612039576d04ee2d6d415b85acef8100000000830492506020015b662386f26fc10000831061205757662386f26fc10000830492506010015b6305f5e100831061206f576305f5e100830492506008015b612710831061208357612710830492506004015b60648310612095576064830492506002015b600a831061057f5760010192915050565b600073ffffffffffffffffffffffffffffffffffffffff84163b15612238576040517f150b7a0200000000000000000000000000000000000000000000000000000000815273ffffffffffffffffffffffffffffffffffffffff85169063150b7a029061211d903390899088908890600401612a35565b6020604051808303816000875af1925050508015612176575060408051601f3d9081017fffffffffffffffffffffffffffffffffffffffffffffffffffffffffffffffe016820190925261217391810190612a7e565b60015b6121ed573d8080156121a4576040519150601f19603f3d011682016040523d82523d6000602084013e6121a9565b606091505b5080516000036121e5576040517f85d5821e00000000000000000000000000000000000000000000000000000000815260040160405180910390fd5b805181602001fd5b7fffffffff00000000000000000000000000000000000000000000000000000000167f150b7a0200000000000000000000000000000000000000000000000000000000149050611608565b506001949350505050565b7fffffffff00000000000000000000000000000000000000000000000000000000811681146109d857600080fd5b60006020828403121561228357600080fd5b813561193181612243565b60005b838110156122a9578181015183820152602001612291565b50506000910152565b600081518084526122ca81602086016020860161228e565b601f017fffffffffffffffffffffffffffffffffffffffffffffffffffffffffffffffe0169290920160200192915050565b60208152600061193160208301846122b2565b60006020828403121561232157600080fd5b5035919050565b73ffffffffffffffffffffffffffffffffffffffff811681146109d857600080fd5b6000806040838503121561235d57600080fd5b823561236881612328565b946020939093013593505050565b60008060006060848603121561238b57600080fd5b833561239681612328565b925060208401356123a681612328565b929592945050506040919091013590565b600080604083850312156123ca57600080fd5b50508035926020909101359150565b7f4e487b7100000000000000000000000000000000000000000000000000000000600052604160045260246000fd5b604051601f82017fffffffffffffffffffffffffffffffffffffffffffffffffffffffffffffffe016810167ffffffffffffffff8111828210171561244f5761244f6123d9565b604052919050565b600067ffffffffffffffff821115612471576124716123d9565b50601f017fffffffffffffffffffffffffffffffffffffffffffffffffffffffffffffffe01660200190565b60006124b06124ab84612457565b612408565b90508281528383830111156124c457600080fd5b828260208301376000602084830101529392505050565b600082601f8301126124ec57600080fd5b6119318383356020850161249d565b600080600080600060a0868803121561251357600080fd5b8535945060208601359350604086013567ffffffffffffffff8082111561253957600080fd5b61254589838a016124db565b9450606088013591508082111561255b57600080fd5b50612568888289016124db565b925050608086013561ffff8116811461258057600080fd5b809150509295509295909350565b6000602082840312156125a057600080fd5b813561193181612328565b6000602082840312156125bd57600080fd5b813567ffffffffffffffff8111156125d457600080fd5b611608848285016124db565b80151581146109d857600080fd5b6000806040838503121561260157600080fd5b823561260c81612328565b9150602083013561261c816125e0565b809150509250929050565b6000806000806080858703121561263d57600080fd5b843561264881612328565b9350602085013561265881612328565b925060408501359150606085013567ffffffffffffffff81111561267b57600080fd5b8501601f8101871361268c57600080fd5b61269b8782356020840161249d565b91505092959194509250565b600080604083850312156126ba57600080fd5b82356126c581612328565b9150602083013561261c81612328565b600181811c908216806126e957607f821691505b602082108103612722577f4e487b7100000000000000000000000000000000000000000000000000000000600052602260045260246000fd5b50919050565b7f4c656e7320436f6c6c656374207c2050726f66696c652023000000000000000081526000835161276081601885016020880161228e565b7f202d205075626c69636174696f6e202300000000000000000000000000000000601891840191820152835161279d81602884016020880161228e565b01602801949350505050565b601f8211156107f7576000816000526020600020601f850160051c810160208610156127d25750805b601f850160051c820191505b818110156109be578281556001016127de565b815167ffffffffffffffff81111561280b5761280b6123d9565b61281f8161281984546126d5565b846127a9565b602080601f831160018114612872576000841561283c5750858301515b7fffffffffffffffffffffffffffffffffffffffffffffffffffffffffffffffff600386901b1c1916600185901b1785556109be565b6000858152602081207fffffffffffffffffffffffffffffffffffffffffffffffffffffffffffffffe08616915b828110156128bf578886015182559484019460019091019084016128a0565b50858210156128fb57878501517fffffffffffffffffffffffffffffffffffffffffffffffffffffffffffffffff600388901b60f8161c191681555b5050505050600190811b01905550565b60006020828403121561291d57600080fd5b815161193181612328565b60006020828403121561293a57600080fd5b815167ffffffffffffffff81111561295157600080fd5b8201601f8101841361296257600080fd5b80516129706124ab82612457565b81815285602083850101111561298557600080fd5b61299682602083016020860161228e565b95945050505050565b6000602082840312156129b157600080fd5b8151611931816125e0565b808202811582820484141761057f577f4e487b7100000000000000000000000000000000000000000000000000000000600052601160045260246000fd5b600082612a30577f4e487b7100000000000000000000000000000000000000000000000000000000600052601260045260246000fd5b500490565b600073ffffffffffffffffffffffffffffffffffffffff808716835280861660208401525083604083015260806060830152612a7460808301846122b2565b9695505050505050565b600060208284031215612a9057600080fd5b81516119318161224356fea2646970667358221220ef6403049afc6345269a6a07305410218c29e61f77cf5f5be419e5c2611bfc5664736f6c63430008170033",
  "devdoc": {
    "author": "Paul Burke",
    "details": "This is a customizable CollectNFT, it differs from the v2 CollectNFT in that the the name and symbol can be set.",
    "events": {
      "Approval(address,address,uint256)": {
        "details": "Emitted when `owner` enables `approved` to manage the `tokenId` token."
      },
      "ApprovalForAll(address,address,bool)": {
        "details": "Emitted when `owner` enables or disables (`approved`) `operator` to manage all of its assets."
      },
      "Transfer(address,address,uint256)": {
        "details": "Emitted when `tokenId` token is transferred from `from` to `to`."
      }
    },
    "kind": "dev",
    "methods": {
      "approve(address,uint256)": {
        "details": "See {IERC721-approve}."
      },
      "balanceOf(address)": {
        "details": "See {IERC721-balanceOf}."
      },
      "burn(uint256)": {
        "details": "Burns `tokenId`. Requirements: - The caller must own `tokenId` or be an approved operator."
      },
      "exists(uint256)": {
        "details": "See {IERC721Timestamped-exists}"
      },
      "getApproved(uint256)": {
        "details": "See {IERC721-getApproved}."
      },
      "getDomainSeparator()": {
        "returns": {
          "_0": "bytes32 The domain separator."
        }
      },
      "getSourcePublicationPointer()": {
        "returns": {
          "_0": "tuple First is the profile ID, and second is the publication ID."
        }
      },
      "initialize(uint256,uint256,string,string,uint16)": {
        "params": {
          "profileId": "The token ID of the profile in the hub that this Collect NFT points to.",
          "pubId": "The profile publication ID in the hub that this Collect NFT points to.",
          "royalty": "The royalty percentage.",
          "tokenName": "The name of the token.",
          "tokenSymbol": "The symbol of the token."
        }
      },
      "isApprovedForAll(address,address)": {
        "details": "See {IERC721-isApprovedForAll}."
      },
      "mint(address)": {
        "params": {
          "to": "The address to mint the NFT to."
        },
        "returns": {
          "_0": "uint256 An integer representing the minted token ID."
        }
      },
      "mintTimestampOf(uint256)": {
        "details": "See {IERC721Timestamped-mintTimestampOf}"
      },
      "name()": {
        "details": "See {IERC721Metadata-name}."
      },
      "nonces(address)": {
        "params": {
          "signer": "The address for which to query the nonce."
        },
        "returns": {
          "_0": "uint256 The current nonce of the given signer."
        }
      },
      "owner()": {
        "details": "Returns the address of the current owner."
      },
      "ownerOf(uint256)": {
        "details": "See {IERC721-ownerOf}."
      },
      "renounceOwnership()": {
        "details": "Leaves the contract without owner. It will not be possible to call `onlyOwner` functions. Can only be called by the current owner. NOTE: Renouncing ownership will leave the contract without an owner, thereby disabling any functionality that is only available to the owner."
      },
      "royaltyInfo(uint256,uint256)": {
        "params": {
          "salePrice": "The sale price of the token specified.",
          "tokenId": "The ID of the token queried for royalty information."
        },
        "returns": {
          "_0": "A tuple with the address that should receive the royalties and the royalty payment amount for the given sale price."
        }
      },
      "safeTransferFrom(address,address,uint256)": {
        "details": "See {IERC721-safeTransferFrom}."
      },
      "safeTransferFrom(address,address,uint256,bytes)": {
        "details": "See {IERC721-safeTransferFrom}."
      },
      "setApprovalForAll(address,bool)": {
        "details": "See {IERC721-setApprovalForAll}."
      },
      "setRoyalty(uint256)": {
        "params": {
          "royaltiesInBasisPoints": "The royalty percentage (measured in basis points)."
        }
      },
      "supportsInterface(bytes4)": {
        "details": "See {IERC165-supportsInterface}."
      },
      "symbol()": {
        "details": "See {IERC721Metadata-symbol}."
      },
      "tokenDataOf(uint256)": {
        "details": "See {IERC721Timestamped-tokenDataOf}"
      },
      "tokenURI(uint256)": {
        "details": "Returns the Uniform Resource Identifier (URI) for `tokenId` token."
      },
      "totalSupply()": {
        "returns": {
          "_0": "uint256 The current total supply of tokens."
        }
      },
      "transferFrom(address,address,uint256)": {
        "details": "See {IERC721-transferFrom}."
      },
      "transferOwnership(address)": {
        "details": "Transfers ownership of the contract to a new account (`newOwner`). Can only be called by the current owner."
      }
    },
    "title": "CustomCollectNFT",
    "version": 1
  },
  "userdoc": {
    "kind": "user",
    "methods": {
      "getDomainSeparator()": {
        "notice": "Returns the EIP-712 domain separator for this contract."
      },
      "getSourcePublicationPointer()": {
        "notice": "Returns the source publication of this collect NFT."
      },
      "initialize(uint256,uint256,string,string,uint16)": {
        "notice": "Initializes the collect NFT, setting the feed as the privileged minter, storing the collected publication pointer and initializing the name and symbol in the LensNFTBase contract."
      },
      "mint(address)": {
        "notice": "Mints a collect NFT to the specified address. This can only be called by the hub and is called upon collection."
      },
      "nonces(address)": {
        "notice": "Returns the current signature nonce of the given signer."
      },
      "royaltyInfo(uint256,uint256)": {
        "notice": "Called with the sale price to determine how much royalty is owed and to whom."
      },
      "setRoyalty(uint256)": {
        "notice": "Changes the royalty percentage for secondary sales."
      },
      "totalSupply()": {
        "notice": "Returns the amount of tokens in circulation."
      }
    },
    "version": 1
  },
  "storageLayout": {
    "storage": [
      {
        "astId": 6605,
        "contract": "contracts/CustomCollectNFT.sol:CustomCollectNFT",
        "label": "_name",
        "offset": 0,
        "slot": "0",
        "type": "t_string_storage"
      },
      {
        "astId": 6607,
        "contract": "contracts/CustomCollectNFT.sol:CustomCollectNFT",
        "label": "_symbol",
        "offset": 0,
        "slot": "1",
        "type": "t_string_storage"
      },
      {
        "astId": 6612,
        "contract": "contracts/CustomCollectNFT.sol:CustomCollectNFT",
        "label": "_tokenData",
        "offset": 0,
        "slot": "2",
        "type": "t_mapping(t_uint256,t_struct(TokenData)10280_storage)"
      },
      {
        "astId": 6616,
        "contract": "contracts/CustomCollectNFT.sol:CustomCollectNFT",
        "label": "_balances",
        "offset": 0,
        "slot": "3",
        "type": "t_mapping(t_address,t_uint256)"
      },
      {
        "astId": 6620,
        "contract": "contracts/CustomCollectNFT.sol:CustomCollectNFT",
        "label": "_tokenApprovals",
        "offset": 0,
        "slot": "4",
        "type": "t_mapping(t_uint256,t_address)"
      },
      {
        "astId": 6626,
        "contract": "contracts/CustomCollectNFT.sol:CustomCollectNFT",
        "label": "_operatorApprovals",
        "offset": 0,
        "slot": "5",
        "type": "t_mapping(t_address,t_mapping(t_address,t_bool))"
      },
      {
        "astId": 6632,
        "contract": "contracts/CustomCollectNFT.sol:CustomCollectNFT",
        "label": "__DEPRECATED__ownedTokens",
        "offset": 0,
        "slot": "6",
        "type": "t_mapping(t_address,t_mapping(t_uint256,t_uint256))"
      },
      {
        "astId": 6636,
        "contract": "contracts/CustomCollectNFT.sol:CustomCollectNFT",
        "label": "__DEPRECATED__ownedTokensIndex",
        "offset": 0,
        "slot": "7",
        "type": "t_mapping(t_uint256,t_uint256)"
      },
      {
        "astId": 6638,
        "contract": "contracts/CustomCollectNFT.sol:CustomCollectNFT",
        "label": "_totalSupply",
        "offset": 0,
        "slot": "8",
        "type": "t_uint256"
      },
      {
        "astId": 6642,
        "contract": "contracts/CustomCollectNFT.sol:CustomCollectNFT",
        "label": "__DEPRECATED__allTokensIndex",
        "offset": 0,
        "slot": "9",
        "type": "t_mapping(t_uint256,t_uint256)"
      },
      {
        "astId": 6646,
        "contract": "contracts/CustomCollectNFT.sol:CustomCollectNFT",
        "label": "_nonces",
        "offset": 0,
        "slot": "10",
        "type": "t_mapping(t_address,t_uint256)"
      },
      {
        "astId": 7,
        "contract": "contracts/CustomCollectNFT.sol:CustomCollectNFT",
        "label": "_owner",
        "offset": 0,
        "slot": "11",
        "type": "t_address"
      },
      {
        "astId": 5040,
        "contract": "contracts/CustomCollectNFT.sol:CustomCollectNFT",
        "label": "_profileId",
        "offset": 0,
        "slot": "12",
        "type": "t_uint256"
      },
      {
        "astId": 5042,
        "contract": "contracts/CustomCollectNFT.sol:CustomCollectNFT",
        "label": "_pubId",
        "offset": 0,
        "slot": "13",
        "type": "t_uint256"
      },
      {
        "astId": 5044,
        "contract": "contracts/CustomCollectNFT.sol:CustomCollectNFT",
        "label": "_tokenIdCounter",
        "offset": 0,
        "slot": "14",
        "type": "t_uint256"
      },
      {
        "astId": 5046,
        "contract": "contracts/CustomCollectNFT.sol:CustomCollectNFT",
        "label": "_initialized",
        "offset": 0,
        "slot": "15",
        "type": "t_bool"
      },
      {
        "astId": 5048,
        "contract": "contracts/CustomCollectNFT.sol:CustomCollectNFT",
        "label": "_name",
        "offset": 0,
        "slot": "16",
        "type": "t_string_storage"
      },
      {
        "astId": 5050,
        "contract": "contracts/CustomCollectNFT.sol:CustomCollectNFT",
        "label": "_symbol",
        "offset": 0,
        "slot": "17",
        "type": "t_string_storage"
      },
      {
        "astId": 5052,
        "contract": "contracts/CustomCollectNFT.sol:CustomCollectNFT",
        "label": "_contractURI",
        "offset": 0,
        "slot": "18",
        "type": "t_string_storage"
      },
      {
        "astId": 5054,
        "contract": "contracts/CustomCollectNFT.sol:CustomCollectNFT",
        "label": "_royaltiesInBasisPoints",
        "offset": 0,
        "slot": "19",
        "type": "t_uint256"
      }
    ],
    "types": {
      "t_address": {
        "encoding": "inplace",
        "label": "address",
        "numberOfBytes": "20"
      },
      "t_bool": {
        "encoding": "inplace",
        "label": "bool",
        "numberOfBytes": "1"
      },
      "t_mapping(t_address,t_bool)": {
        "encoding": "mapping",
        "key": "t_address",
        "label": "mapping(address => bool)",
        "numberOfBytes": "32",
        "value": "t_bool"
      },
      "t_mapping(t_address,t_mapping(t_address,t_bool))": {
        "encoding": "mapping",
        "key": "t_address",
        "label": "mapping(address => mapping(address => bool))",
        "numberOfBytes": "32",
        "value": "t_mapping(t_address,t_bool)"
      },
      "t_mapping(t_address,t_mapping(t_uint256,t_uint256))": {
        "encoding": "mapping",
        "key": "t_address",
        "label": "mapping(address => mapping(uint256 => uint256))",
        "numberOfBytes": "32",
        "value": "t_mapping(t_uint256,t_uint256)"
      },
      "t_mapping(t_address,t_uint256)": {
        "encoding": "mapping",
        "key": "t_address",
        "label": "mapping(address => uint256)",
        "numberOfBytes": "32",
        "value": "t_uint256"
      },
      "t_mapping(t_uint256,t_address)": {
        "encoding": "mapping",
        "key": "t_uint256",
        "label": "mapping(uint256 => address)",
        "numberOfBytes": "32",
        "value": "t_address"
      },
      "t_mapping(t_uint256,t_struct(TokenData)10280_storage)": {
        "encoding": "mapping",
        "key": "t_uint256",
        "label": "mapping(uint256 => struct Types.TokenData)",
        "numberOfBytes": "32",
        "value": "t_struct(TokenData)10280_storage"
      },
      "t_mapping(t_uint256,t_uint256)": {
        "encoding": "mapping",
        "key": "t_uint256",
        "label": "mapping(uint256 => uint256)",
        "numberOfBytes": "32",
        "value": "t_uint256"
      },
      "t_string_storage": {
        "encoding": "bytes",
        "label": "string",
        "numberOfBytes": "32"
      },
      "t_struct(TokenData)10280_storage": {
        "encoding": "inplace",
        "label": "struct Types.TokenData",
        "members": [
          {
            "astId": 10277,
            "contract": "contracts/CustomCollectNFT.sol:CustomCollectNFT",
            "label": "owner",
            "offset": 0,
            "slot": "0",
            "type": "t_address"
          },
          {
            "astId": 10279,
            "contract": "contracts/CustomCollectNFT.sol:CustomCollectNFT",
            "label": "mintTimestamp",
            "offset": 20,
            "slot": "0",
            "type": "t_uint96"
          }
        ],
        "numberOfBytes": "32"
      },
      "t_uint256": {
        "encoding": "inplace",
        "label": "uint256",
        "numberOfBytes": "32"
      },
      "t_uint96": {
        "encoding": "inplace",
        "label": "uint96",
        "numberOfBytes": "12"
      }
    }
  }
}