{
  "address": "0x857b5e09d54AD26580297C02e4596537a2d3E329",
  "abi": [
    {
      "inputs": [
        {
          "internalType": "address",
          "name": "hub",
          "type": "address"
        },
        {
          "internalType": "address",
          "name": "treasury",
          "type": "address"
        },
        {
          "internalType": "address",
          "name": "profileNFT",
          "type": "address"
        },
        {
          "internalType": "address",
          "name": "lensProtocol",
          "type": "address"
        },
        {
          "internalType": "contract IModuleRegistry",
          "name": "moduleRegistry",
          "type": "address"
        },
        {
          "internalType": "address",
          "name": "collectNFTImpl",
          "type": "address"
        }
      ],
      "stateMutability": "nonpayable",
      "type": "constructor"
    },
    {
      "inputs": [],
      "name": "CollectAlreadyProcessed",
      "type": "error"
    },
    {
      "inputs": [],
      "name": "FeeAlreadyProcessed",
      "type": "error"
    },
    {
      "inputs": [],
      "name": "InitParamsInvalid",
      "type": "error"
    },
    {
      "inputs": [],
      "name": "InsufficientBidAmount",
      "type": "error"
    },
    {
      "inputs": [],
      "name": "InvalidRecipientSplits",
      "type": "error"
    },
    {
      "inputs": [],
      "name": "NotFollowing",
      "type": "error"
    },
    {
      "inputs": [],
      "name": "NotHub",
      "type": "error"
    },
    {
      "inputs": [],
      "name": "OngoingAuction",
      "type": "error"
    },
    {
      "inputs": [],
      "name": "RecipientSplitCannotBeZero",
      "type": "error"
    },
    {
      "inputs": [],
      "name": "TooManyRecipients",
      "type": "error"
    },
    {
      "inputs": [],
      "name": "UnavailableAuction",
      "type": "error"
    },
    {
      "anonymous": false,
      "inputs": [
        {
          "indexed": true,
          "internalType": "uint256",
          "name": "profileId",
          "type": "uint256"
        },
        {
          "indexed": true,
          "internalType": "uint256",
          "name": "pubId",
          "type": "uint256"
        },
        {
          "indexed": false,
          "internalType": "uint64",
          "name": "availableSinceTimestamp",
          "type": "uint64"
        },
        {
          "indexed": false,
          "internalType": "uint32",
          "name": "duration",
          "type": "uint32"
        },
        {
          "indexed": false,
          "internalType": "uint32",
          "name": "minTimeAfterBid",
          "type": "uint32"
        },
        {
          "indexed": false,
          "internalType": "uint256",
          "name": "reservePrice",
          "type": "uint256"
        },
        {
          "indexed": false,
          "internalType": "uint256",
          "name": "minBidIncrement",
          "type": "uint256"
        },
        {
          "indexed": false,
          "internalType": "uint16",
          "name": "referralFee",
          "type": "uint16"
        },
        {
          "indexed": false,
          "internalType": "address",
          "name": "currency",
          "type": "address"
        },
        {
          "components": [
            {
              "internalType": "address",
              "name": "recipient",
              "type": "address"
            },
            {
              "internalType": "uint16",
              "name": "split",
              "type": "uint16"
            }
          ],
          "indexed": false,
          "internalType": "struct RecipientData[]",
          "name": "recipients",
          "type": "tuple[]"
        },
        {
          "indexed": false,
          "internalType": "bool",
          "name": "onlyFollowers",
          "type": "bool"
        },
        {
          "indexed": false,
          "internalType": "bytes32",
          "name": "tokenName",
          "type": "bytes32"
        },
        {
          "indexed": false,
          "internalType": "bytes32",
          "name": "tokenSymbol",
          "type": "bytes32"
        },
        {
          "indexed": false,
          "internalType": "uint16",
          "name": "tokenRoyalty",
          "type": "uint16"
        }
      ],
      "name": "AuctionCreated",
      "type": "event"
    },
    {
      "anonymous": false,
      "inputs": [
        {
          "indexed": true,
          "internalType": "uint256",
          "name": "profileId",
          "type": "uint256"
        },
        {
          "indexed": true,
          "internalType": "uint256",
          "name": "pubId",
          "type": "uint256"
        },
        {
          "indexed": false,
          "internalType": "uint256[]",
          "name": "referrerProfileIds",
          "type": "uint256[]"
        },
        {
          "indexed": false,
          "internalType": "uint256",
          "name": "amount",
          "type": "uint256"
        },
        {
          "indexed": false,
          "internalType": "address",
          "name": "bidderOwner",
          "type": "address"
        },
        {
          "indexed": false,
          "internalType": "uint256",
          "name": "bidderProfileId",
          "type": "uint256"
        },
        {
          "indexed": false,
          "internalType": "address",
          "name": "transactionExecutor",
          "type": "address"
        },
        {
          "indexed": false,
          "internalType": "uint256",
          "name": "endTimestamp",
          "type": "uint256"
        },
        {
          "indexed": false,
          "internalType": "uint256",
          "name": "timestamp",
          "type": "uint256"
        }
      ],
      "name": "BidPlaced",
      "type": "event"
    },
    {
      "anonymous": false,
      "inputs": [
        {
          "indexed": true,
          "internalType": "uint256",
          "name": "profileId",
          "type": "uint256"
        },
        {
          "indexed": true,
          "internalType": "uint256",
          "name": "pubId",
          "type": "uint256"
        },
        {
          "indexed": true,
          "internalType": "address",
          "name": "collectNFT",
          "type": "address"
        },
        {
          "indexed": false,
          "internalType": "uint256",
          "name": "timestamp",
          "type": "uint256"
        }
      ],
      "name": "CollectNFTDeployed",
      "type": "event"
    },
    {
      "anonymous": false,
      "inputs": [
        {
          "indexed": true,
          "internalType": "uint256",
          "name": "collectedProfileId",
          "type": "uint256"
        },
        {
          "indexed": true,
          "internalType": "uint256",
          "name": "collectedPubId",
          "type": "uint256"
        },
        {
          "indexed": true,
          "internalType": "uint256",
          "name": "collectorProfileId",
          "type": "uint256"
        },
        {
          "indexed": false,
          "internalType": "address",
          "name": "nftRecipient",
          "type": "address"
        },
        {
          "indexed": false,
          "internalType": "address",
          "name": "collectNFT",
          "type": "address"
        },
        {
          "indexed": false,
          "internalType": "uint256",
          "name": "tokenId",
          "type": "uint256"
        },
        {
          "indexed": false,
          "internalType": "uint256",
          "name": "timestamp",
          "type": "uint256"
        }
      ],
      "name": "Collected",
      "type": "event"
    },
    {
      "anonymous": false,
      "inputs": [
        {
          "indexed": true,
          "internalType": "uint256",
          "name": "profileId",
          "type": "uint256"
        },
        {
          "indexed": true,
          "internalType": "uint256",
          "name": "pubId",
          "type": "uint256"
        },
        {
          "indexed": false,
          "internalType": "uint256",
          "name": "timestamp",
          "type": "uint256"
        }
      ],
      "name": "FeeProcessed",
      "type": "event"
    },
    {
      "anonymous": false,
      "inputs": [
        {
          "indexed": false,
          "internalType": "uint256",
          "name": "profileId",
          "type": "uint256"
        },
        {
          "indexed": false,
          "internalType": "uint256",
          "name": "pubId",
          "type": "uint256"
        },
        {
          "indexed": false,
          "internalType": "address",
          "name": "transactionExecutor",
          "type": "address"
        },
        {
          "indexed": false,
          "internalType": "bytes",
          "name": "data",
          "type": "bytes"
        }
      ],
      "name": "InitializedPublicationAction",
      "type": "event"
    },
    {
      "anonymous": false,
      "inputs": [],
      "name": "ModuleRegistered",
      "type": "event"
    },
    {
      "anonymous": false,
      "inputs": [
        {
          "indexed": true,
          "internalType": "address",
          "name": "previousOwner",
          "type": "address"
        },
        {
          "indexed": true,
          "internalType": "address",
          "name": "newOwner",
          "type": "address"
        }
      ],
      "name": "OwnershipTransferred",
      "type": "event"
    },
    {
      "anonymous": false,
      "inputs": [
        {
          "indexed": false,
          "internalType": "uint256",
          "name": "profileId",
          "type": "uint256"
        },
        {
          "indexed": false,
          "internalType": "uint256",
          "name": "pubId",
          "type": "uint256"
        },
        {
          "indexed": false,
          "internalType": "address",
          "name": "transactionExecutor",
          "type": "address"
        },
        {
          "indexed": false,
          "internalType": "bytes",
          "name": "data",
          "type": "bytes"
        }
      ],
      "name": "ProcessedPublicationAction",
      "type": "event"
    },
    {
      "inputs": [],
      "name": "HUB",
      "outputs": [
        {
          "internalType": "address",
          "name": "",
          "type": "address"
        }
      ],
      "stateMutability": "view",
      "type": "function"
    },
    {
      "inputs": [],
      "name": "MODULE_REGISTRY",
      "outputs": [
        {
          "internalType": "contract IModuleRegistry",
          "name": "",
          "type": "address"
        }
      ],
      "stateMutability": "view",
      "type": "function"
    },
    {
      "inputs": [
        {
          "internalType": "uint256",
          "name": "collectedProfileId",
          "type": "uint256"
        },
        {
          "internalType": "uint256",
          "name": "collectedPubId",
          "type": "uint256"
        }
      ],
      "name": "claim",
      "outputs": [],
      "stateMutability": "nonpayable",
      "type": "function"
    },
    {
      "inputs": [
        {
          "internalType": "uint256",
          "name": "profileId",
          "type": "uint256"
        },
        {
          "internalType": "uint256",
          "name": "pubId",
          "type": "uint256"
        }
      ],
      "name": "getAuctionData",
      "outputs": [
        {
          "components": [
            {
              "internalType": "uint64",
              "name": "availableSinceTimestamp",
              "type": "uint64"
            },
            {
              "internalType": "uint64",
              "name": "startTimestamp",
              "type": "uint64"
            },
            {
              "internalType": "uint32",
              "name": "duration",
              "type": "uint32"
            },
            {
              "internalType": "uint32",
              "name": "minTimeAfterBid",
              "type": "uint32"
            },
            {
              "internalType": "uint64",
              "name": "endTimestamp",
              "type": "uint64"
            },
            {
              "internalType": "uint256",
              "name": "reservePrice",
              "type": "uint256"
            },
            {
              "internalType": "uint256",
              "name": "minBidIncrement",
              "type": "uint256"
            },
            {
              "internalType": "uint256",
              "name": "winningBid",
              "type": "uint256"
            },
            {
              "internalType": "uint16",
              "name": "referralFee",
              "type": "uint16"
            },
            {
              "internalType": "address",
              "name": "currency",
              "type": "address"
            },
            {
              "internalType": "uint256",
              "name": "winnerProfileId",
              "type": "uint256"
            },
            {
              "internalType": "bool",
              "name": "onlyFollowers",
              "type": "bool"
            },
            {
              "internalType": "bool",
              "name": "collected",
              "type": "bool"
            },
            {
              "internalType": "bool",
              "name": "feeProcessed",
              "type": "bool"
            },
            {
              "components": [
                {
                  "internalType": "bytes32",
                  "name": "name",
                  "type": "bytes32"
                },
                {
                  "internalType": "bytes32",
                  "name": "symbol",
                  "type": "bytes32"
                },
                {
                  "internalType": "uint16",
                  "name": "royalty",
                  "type": "uint16"
                }
              ],
              "internalType": "struct TokenData",
              "name": "tokenData",
              "type": "tuple"
            }
          ],
          "internalType": "struct AuctionData",
          "name": "",
          "type": "tuple"
        }
      ],
      "stateMutability": "view",
      "type": "function"
    },
    {
      "inputs": [
        {
          "internalType": "uint256",
          "name": "profileId",
          "type": "uint256"
        },
        {
          "internalType": "uint256",
          "name": "pubId",
          "type": "uint256"
        }
      ],
      "name": "getCollectNFT",
      "outputs": [
        {
          "internalType": "address",
          "name": "",
          "type": "address"
        }
      ],
      "stateMutability": "view",
      "type": "function"
    },
    {
      "inputs": [],
      "name": "getCollectNftImpl",
      "outputs": [
        {
          "internalType": "address",
          "name": "",
          "type": "address"
        }
      ],
      "stateMutability": "view",
      "type": "function"
    },
    {
      "inputs": [],
      "name": "getModuleMetadataURI",
      "outputs": [
        {
          "internalType": "string",
          "name": "",
          "type": "string"
        }
      ],
      "stateMutability": "view",
      "type": "function"
    },
    {
      "inputs": [
        {
          "internalType": "uint256",
          "name": "profileId",
          "type": "uint256"
        },
        {
          "internalType": "uint256",
          "name": "pubId",
          "type": "uint256"
        }
      ],
      "name": "getRecipients",
      "outputs": [
        {
          "components": [
            {
              "internalType": "address",
              "name": "recipient",
              "type": "address"
            },
            {
              "internalType": "uint16",
              "name": "split",
              "type": "uint16"
            }
          ],
          "internalType": "struct RecipientData[]",
          "name": "",
          "type": "tuple[]"
        }
      ],
      "stateMutability": "view",
      "type": "function"
    },
    {
      "inputs": [
        {
          "internalType": "uint256",
          "name": "profileId",
          "type": "uint256"
        },
        {
          "internalType": "uint256",
          "name": "pubId",
          "type": "uint256"
        },
        {
          "internalType": "address",
          "name": "transactionExecutor",
          "type": "address"
        },
        {
          "internalType": "bytes",
          "name": "data",
          "type": "bytes"
        }
      ],
      "name": "initializePublicationAction",
      "outputs": [
        {
          "internalType": "bytes",
          "name": "",
          "type": "bytes"
        }
      ],
      "stateMutability": "nonpayable",
      "type": "function"
    },
    {
      "inputs": [],
      "name": "isRegistered",
      "outputs": [
        {
          "internalType": "bool",
          "name": "",
          "type": "bool"
        }
      ],
      "stateMutability": "view",
      "type": "function"
    },
    {
      "inputs": [],
      "name": "owner",
      "outputs": [
        {
          "internalType": "address",
          "name": "",
          "type": "address"
        }
      ],
      "stateMutability": "view",
      "type": "function"
    },
    {
      "inputs": [
        {
          "components": [
            {
              "internalType": "uint256",
              "name": "publicationActedProfileId",
              "type": "uint256"
            },
            {
              "internalType": "uint256",
              "name": "publicationActedId",
              "type": "uint256"
            },
            {
              "internalType": "uint256",
              "name": "actorProfileId",
              "type": "uint256"
            },
            {
              "internalType": "address",
              "name": "actorProfileOwner",
              "type": "address"
            },
            {
              "internalType": "address",
              "name": "transactionExecutor",
              "type": "address"
            },
            {
              "internalType": "uint256[]",
              "name": "referrerProfileIds",
              "type": "uint256[]"
            },
            {
              "internalType": "uint256[]",
              "name": "referrerPubIds",
              "type": "uint256[]"
            },
            {
              "internalType": "enum Types.PublicationType[]",
              "name": "referrerPubTypes",
              "type": "uint8[]"
            },
            {
              "internalType": "bytes",
              "name": "actionModuleData",
              "type": "bytes"
            }
          ],
          "internalType": "struct Types.ProcessActionParams",
          "name": "params",
          "type": "tuple"
        }
      ],
      "name": "processPublicationAction",
      "outputs": [
        {
          "internalType": "bytes",
          "name": "",
          "type": "bytes"
        }
      ],
      "stateMutability": "nonpayable",
      "type": "function"
    },
    {
      "inputs": [],
      "name": "registerModule",
      "outputs": [
        {
          "internalType": "bool",
          "name": "",
          "type": "bool"
        }
      ],
      "stateMutability": "nonpayable",
      "type": "function"
    },
    {
      "inputs": [],
      "name": "renounceOwnership",
      "outputs": [],
      "stateMutability": "nonpayable",
      "type": "function"
    },
    {
      "inputs": [
        {
          "internalType": "address",
          "name": "_collectNftImpl",
          "type": "address"
        }
      ],
      "name": "setCollectNftImpl",
      "outputs": [],
      "stateMutability": "nonpayable",
      "type": "function"
    },
    {
      "inputs": [
        {
          "internalType": "string",
          "name": "_metadataURI",
          "type": "string"
        }
      ],
      "name": "setModuleMetadataURI",
      "outputs": [],
      "stateMutability": "nonpayable",
      "type": "function"
    },
    {
      "inputs": [
        {
          "internalType": "bytes4",
          "name": "interfaceID",
          "type": "bytes4"
        }
      ],
      "name": "supportsInterface",
      "outputs": [
        {
          "internalType": "bool",
          "name": "",
          "type": "bool"
        }
      ],
      "stateMutability": "pure",
      "type": "function"
    },
    {
      "inputs": [
        {
          "internalType": "address",
          "name": "newOwner",
          "type": "address"
        }
      ],
      "name": "transferOwnership",
      "outputs": [],
      "stateMutability": "nonpayable",
      "type": "function"
    }
  ],
  "transactionHash": "0xe5ed56aa2e66b02b8e611e6e1f7d895e87a159cbc486f73e530fff3d2e3d6f7c",
  "args": [
    "0xdb46d1dc155634fbc732f92e853b10b288ad5a1d",
    "0xdb46d1dc155634fbc732f92e853b10b288ad5a1d",
    "0xdb46d1dc155634fbc732f92e853b10b288ad5a1d",
    "0xdb46d1dc155634fbc732f92e853b10b288ad5a1d",
    "0x1eD5983F0c883B96f7C35528a1e22EEA67DE3Ff9",
    "0x7Bb025f8Aa14aD64EB81FaE9CAaC2A04ed1d1424"
  ],
  "numDeployments": 5,
  "solcInputHash": "a0561f1f72fabc54559d8989476d7494",
  "bytecode": "0x6101206040523480156200001257600080fd5b5060405162003ce538038062003ce58339810160408190526200003591620000f4565b6001600160a01b038616608052816200004e336200008b565b6001600160a01b0390811660a05294851660c05292841660e05250821661010052600280546001600160a01b031916919092161790555062000188565b600080546001600160a01b038381166001600160a01b0319831681178455604051919092169283917f8be0079c531659141344cd1fd0a4f28419497f9722a3daafe3b4186f6b6457e09190a35050565b6001600160a01b0381168114620000f157600080fd5b50565b60008060008060008060c087890312156200010e57600080fd5b86516200011b81620000db565b60208801519096506200012e81620000db565b60408801519095506200014181620000db565b60608801519094506200015481620000db565b60808801519093506200016781620000db565b60a08801519092506200017a81620000db565b809150509295509295509295565b60805160a05160c05160e05161010051613ae7620001fe600039600061276c015260008181610c0b01528181611a2901526124fc01526000612a900152600081816102c90152818161054801528181610ee601526112480152600081816102a20152818161040e01526108bd0152613ae76000f3fe608060405234801561001057600080fd5b50600436106101365760003560e01c806390ce6e08116100b2578063c349026311610081578063e0f0da8511610066578063e0f0da8514610306578063ed3c54de1461030e578063f2fde38b1461032157600080fd5b8063c3490263146102eb578063ce90d52e146102fe57600080fd5b806390ce6e081461026c5780639136455f1461027f578063a4c52b861461029d578063b95ddb52146102c457600080fd5b806352aaef5511610109578063715018a6116100ee578063715018a614610226578063861ff1011461022e5780638da5cb5b1461024e57600080fd5b806352aaef55146101ab578063681591c11461021157600080fd5b806301ffc9a71461013b5780630b960220146101635780632236684414610183578063417f3c3d1461018b575b600080fd5b61014e610149366004612d83565b610334565b60405190151581526020015b60405180910390f35b610176610171366004612de7565b6103f4565b60405161015a9190612eeb565b61014e610517565b61019e610199366004612efe565b6105cd565b60405161015a9190612f20565b6101ec6101b9366004612efe565b600091825260036020908152604080842092845291905290205473ffffffffffffffffffffffffffffffffffffffff1690565b60405173ffffffffffffffffffffffffffffffffffffffff909116815260200161015a565b61022461021f3660046130fa565b6107cd565b005b6102246107e5565b61024161023c366004612efe565b6107f9565b60405161015a919061320e565b60005473ffffffffffffffffffffffffffffffffffffffff166101ec565b61017661027a366004613221565b6108a3565b60025473ffffffffffffffffffffffffffffffffffffffff166101ec565b6101ec7f000000000000000000000000000000000000000000000000000000000000000081565b6101ec7f000000000000000000000000000000000000000000000000000000000000000081565b6102246102f9366004612efe565b610a53565b610176610dff565b61014e610e91565b61022461031c36600461325d565b610f9e565b61022461032f36600461325d565b610fed565b60007fffffffff0000000000000000000000000000000000000000000000000000000082167f9b586c280000000000000000000000000000000000000000000000000000000014806103ee5750604080517f4c454e535f4d4f44554c450000000000000000000000000000000000000000006020808301919091528251600b818403018152602b90920190925280519101207fffffffff000000000000000000000000000000000000000000000000000000008381169116145b92915050565b60603373ffffffffffffffffffffffffffffffffffffffff7f00000000000000000000000000000000000000000000000000000000000000001614610465576040517f9de9741800000000000000000000000000000000000000000000000000000000815260040160405180910390fd5b7f3a08e775ac33980c7d5a647b877a3521afe04b580d844989ba8aa79d3d79db34868686868660405161049c95949392919061327a565b60405180910390a160006104b084846110a9565b90506104bb816111ce565b6104ca8160e001518888611306565b6104d5878783611510565b83838080601f016020809104026020016040519081016040528093929190818152602001838380828437600092019190915250929a9950505050505050505050565b6040517f1c5ebe2f0000000000000000000000000000000000000000000000000000000081523060048201526000907f000000000000000000000000000000000000000000000000000000000000000073ffffffffffffffffffffffffffffffffffffffff1690631c5ebe2f90602401602060405180830381865afa1580156105a4573d6000803e3d6000fd5b505050506040513d601f19601f820116820180604052508101906105c89190613300565b905090565b610660604080516101e0810182526000808252602080830182905282840182905260608084018390526080840183905260a0840183905260c0840183905260e08401839052610100840183905261012084018390526101408401839052610160840183905261018084018390526101a084018390528451908101855282815290810182905292830152906101c082015290565b5060009182526004602081815260408085209385529281529282902082516101e081018452815467ffffffffffffffff808216835268010000000000000000820481168388015263ffffffff7001000000000000000000000000000000008304811684880152740100000000000000000000000000000000000000008304166060808501919091527801000000000000000000000000000000000000000000000000909204166080830152600183015460a0830152600283015460c0830152600383015460e08301529282015461ffff8082166101008085019190915273ffffffffffffffffffffffffffffffffffffffff6201000093849004166101208501526005850154610140850152600685015460ff8082161515610160870152918104821615156101808601529290920490911615156101a08301528451938401855260078301548452600883015495840195909552600990910154909316918101919091526101c082015290565b6107d561174f565b60016107e182826133b8565b5050565b6107ed61174f565b6107f760006117d0565b565b60008281526005602090815260408083208484528252808320805482518185028101850190935280835260609492939192909184015b82821015610897576000848152602090819020604080518082019091529084015473ffffffffffffffffffffffffffffffffffffffff8116825274010000000000000000000000000000000000000000900461ffff168183015282526001909201910161082f565b50505050905092915050565b60603373ffffffffffffffffffffffffffffffffffffffff7f00000000000000000000000000000000000000000000000000000000000000001614610914576040517f9de9741800000000000000000000000000000000000000000000000000000000815260040160405180910390fd5b7fc1205783ea019e10746609025d26cc389e99e61935bc7e510f5ff18cdcb477538235602084013561094c60a086016080870161325d565b61095a6101008701876134d2565b60405161096b95949392919061327a565b60405180910390a160006109836101008401846134d2565b810190610990919061353e565b9050610a07833560208501356109a960a0870187613557565b808060200260200160405190810160405280939291908181526020018383602002808284376000920191909152508792506109ed9150506080890160608a0161325d565b6040890135610a0260a08b0160808c0161325d565b611845565b610a156101008401846134d2565b8080601f016020809104026020016040519081016040528093929190818152602001838380828437600092019190915250929450505050505b919050565b600082815260046020908152604080832084845290915290205467ffffffffffffffff16421015610ab0576040517f830d593c00000000000000000000000000000000000000000000000000000000815260040160405180910390fd5b600082815260046020908152604080832084845290915290205468010000000000000000900467ffffffffffffffff161580610b2b575060008281526004602090815260408083208484529091529020547801000000000000000000000000000000000000000000000000900467ffffffffffffffff164211155b15610b62576040517fb3bfd5dd00000000000000000000000000000000000000000000000000000000815260040160405180910390fd5b6000828152600460209081526040808320848452909152902060060154610100900460ff1615610bbe576040517f908fb28200000000000000000000000000000000000000000000000000000000815260040160405180910390fd5b60008281526004602081815260408084208585529091528083206005015490517f6352211e00000000000000000000000000000000000000000000000000000000815291820181905291907f000000000000000000000000000000000000000000000000000000000000000073ffffffffffffffffffffffffffffffffffffffff1690636352211e90602401602060405180830381865afa158015610c67573d6000803e3d6000fd5b505050506040513d601f19601f82011682018060405250810190610c8b91906135bf565b90506000610c998585611b74565b6040517f6a62784200000000000000000000000000000000000000000000000000000000815273ffffffffffffffffffffffffffffffffffffffff8481166004830152919250600091831690636a627842906024016020604051808303816000875af1158015610d0d573d6000803e3d6000fd5b505050506040513d601f19601f82011682018060405250810190610d3191906135dc565b6000878152600460209081526040808320898452909152902060060180547fffffffffffffffffffffffffffffffffffffffffffffffffffffffffffff00ff16610100179081905590915062010000900460ff16610d9357610d938686611c14565b6040805173ffffffffffffffffffffffffffffffffffffffff8086168252841660208201529081018290524260608201528490869088907fffacc2ad1db7f4e40ce87df8b03259342ab38b1fbe956d2f7f9e9ea12bdc86819060800160405180910390a4505050505050565b606060018054610e0e9061331d565b80601f0160208091040260200160405190810160405280929190818152602001828054610e3a9061331d565b8015610e875780601f10610e5c57610100808354040283529160200191610e87565b820191906000526020600020905b815481529060010190602001808311610e6a57829003601f168201915b5050505050905090565b6000610e9b61174f565b610ea3610517565b15610eae5750600190565b6040517f41ab44ee000000000000000000000000000000000000000000000000000000008152306004820152600160248201526000907f000000000000000000000000000000000000000000000000000000000000000073ffffffffffffffffffffffffffffffffffffffff16906341ab44ee906044016020604051808303816000875af1158015610f44573d6000803e3d6000fd5b505050506040513d601f19601f82011682018060405250810190610f689190613300565b905080156105c8576040517fb24617d9cac8b35b25b3bcaf3eb7e8e8e1cbed6ee116121e4e1c08a97743106290600090a1905090565b610fa661174f565b600280547fffffffffffffffffffffffff00000000000000000000000000000000000000001673ffffffffffffffffffffffffffffffffffffffff92909216919091179055565b610ff561174f565b73ffffffffffffffffffffffffffffffffffffffff811661109d576040517f08c379a000000000000000000000000000000000000000000000000000000000815260206004820152602660248201527f4f776e61626c653a206e6577206f776e657220697320746865207a65726f206160448201527f646472657373000000000000000000000000000000000000000000000000000060648201526084015b60405180910390fd5b6110a6816117d0565b50565b604080516101808101825260008082526020820181905291810182905260608082018390526080820183905260a0820183905260c0820183905260e08201526101008101829052610120810182905261014081018290526101608101919091526000806000806000806000806000806000808e8e81019061112a9190613708565b604080516101808101825267ffffffffffffffff909d168d5263ffffffff9b8c1660208e01529a909916998b019990995260608a0196909652608089019490945261ffff92831660a089015273ffffffffffffffffffffffffffffffffffffffff90911660c088015260e0870152901515610100860152610120850191909152610140840192909252166101608201529c5050505050505050505050505092915050565b602081015163ffffffff1615806111f85750806040015163ffffffff16816020015163ffffffff16105b806112b7575060c08101516040517ff21b24d700000000000000000000000000000000000000000000000000000000815273ffffffffffffffffffffffffffffffffffffffff91821660048201527f00000000000000000000000000000000000000000000000000000000000000009091169063f21b24d790602401602060405180830381865afa158015611291573d6000803e3d6000fd5b505050506040513d601f19601f820116820180604052508101906112b59190613300565b155b806112cf575061271061ffff168160a0015161ffff16115b156110a6576040517f48be0eb300000000000000000000000000000000000000000000000000000000815260040160405180910390fd5b82516001811015611343576040517f48be0eb300000000000000000000000000000000000000000000000000000000815260040160405180910390fd5b600581111561137e576040517f5531b49500000000000000000000000000000000000000000000000000000000815260040160405180910390fd5b6000805b828110156114cd5785818151811061139c5761139c6137e5565b60200260200101516020015161ffff166000036113e5576040517f409bab8100000000000000000000000000000000000000000000000000000000815260040160405180910390fd5b8581815181106113f7576113f76137e5565b60200260200101516020015161ffff16826114129190613843565b60008681526005602090815260408083208884529091529020875191935090879083908110611443576114436137e5565b602090810291909101810151825460018181018555600094855293839020825191018054929093015161ffff1674010000000000000000000000000000000000000000027fffffffffffffffffffff0000000000000000000000000000000000000000000090921673ffffffffffffffffffffffffffffffffffffffff9091161717905501611382565b6127108214611508576040517f657e43c400000000000000000000000000000000000000000000000000000000815260040160405180910390fd5b505050505050565b6000600460008581526020019081526020016000206000848152602001908152602001600020905081600001518160000160006101000a81548167ffffffffffffffff021916908367ffffffffffffffff16021790555081602001518160000160106101000a81548163ffffffff021916908363ffffffff16021790555081604001518160000160146101000a81548163ffffffff021916908363ffffffff16021790555081606001518160010181905550816080015181600201819055508160a001518160040160006101000a81548161ffff021916908361ffff1602179055508160c001518160040160026101000a81548173ffffffffffffffffffffffffffffffffffffffff021916908373ffffffffffffffffffffffffffffffffffffffff1602179055508161010001518160060160006101000a81548160ff02191690831515021790555060405180606001604052808361012001518152602001836101400151815260200183610160015161ffff1681525081600701600082015181600001556020820151816001015560408201518160020160006101000a81548161ffff021916908361ffff16021790555090505082847f5ca55d22d46e60a0b3425062d4d5ae0810c30aef16e4d98c2733f63f04726dd1846000015185602001518660400151876060015188608001518960a001518a60c001518b60e001518c61010001518d61012001518e61014001518f61016001516040516117419c9b9a99989796959493929190613856565b60405180910390a350505050565b60005473ffffffffffffffffffffffffffffffffffffffff1633146107f7576040517f08c379a000000000000000000000000000000000000000000000000000000000815260206004820181905260248201527f4f776e61626c653a2063616c6c6572206973206e6f7420746865206f776e65726044820152606401611094565b6000805473ffffffffffffffffffffffffffffffffffffffff8381167fffffffffffffffffffffffff0000000000000000000000000000000000000000831681178455604051919092169283917f8be0079c531659141344cd1fd0a4f28419497f9722a3daafe3b4186f6b6457e09190a35050565b60008781526004602081815260408084208a855282529283902083516101e081018552815467ffffffffffffffff808216835268010000000000000000820481168386015263ffffffff7001000000000000000000000000000000008304811684890152740100000000000000000000000000000000000000008304166060808501919091527801000000000000000000000000000000000000000000000000909204166080830152600183015460a0830152600283015460c0830152600383015460e08301529382015461ffff8082166101008085019190915273ffffffffffffffffffffffffffffffffffffffff6201000093849004166101208501526005850154610140850152600685015460ff8082161515610160870152918104821615156101808601529290920490911615156101a08301528551948501865260078301548552600883015493850193909352600990910154909116928201929092526101c08201526119b988868584611e19565b6119c588888886611ec7565b60006119d48989888786611f4e565b9050816101400151600014611ad9576101408201516040517f6352211e00000000000000000000000000000000000000000000000000000000815260009173ffffffffffffffffffffffffffffffffffffffff7f00000000000000000000000000000000000000000000000000000000000000001691636352211e91611a609160040190815260200190565b602060405180830381865afa158015611a7d573d6000803e3d6000fd5b505050506040513d601f19601f82011682018060405250810190611aa191906135bf565b9050611ad7818460e0015185610120015173ffffffffffffffffffffffffffffffffffffffff166120b29092919063ffffffff16565b505b610120820151611b019073ffffffffffffffffffffffffffffffffffffffff1684308961218b565b60008981526006602090815260408083208b8452825280832087845290915290819020905189918b917f3a22c344293f7594bd6642815ae1081eeeb72fa32b6ad4746d070f3a00bd201891611b61918b908b908b908b908a904290613904565b60405180910390a3505050505050505050565b600082815260036020908152604080832084845290915281205473ffffffffffffffffffffffffffffffffffffffff1680611c0d57611bb384846121e9565b6000858152600360209081526040808320878452909152902080547fffffffffffffffffffffffff00000000000000000000000000000000000000001673ffffffffffffffffffffffffffffffffffffffff831617905590505b9392505050565b60008281526004602090815260408083208484528252808320600680820180547fffffffffffffffffffffffffffffffffffffffffffffffffffffffffff00ffff1662010000179055868552835281842085855283528184206005918201548552835281842086855290835281842085855283528184208054835181860281018601909452808452919493909190849084015b82821015611d0f576000848152602090819020604080518082019091529084015473ffffffffffffffffffffffffffffffffffffffff8116825274010000000000000000000000000000000000000000900461ffff1681830152825260019092019101611ca7565b50508454929350509015905080611d4257508382600081548110611d3557611d356137e5565b9060005260206000200154145b15611d955760008481526004602081815260408084208785529091529091206003810154910154611d90919062010000900473ffffffffffffffffffffffffffffffffffffffff168361233d565b611de6565b60008481526004602081815260408084208785529091529091206003810154910154611de6919061ffff811690859062010000900473ffffffffffffffffffffffffffffffffffffffff1685612449565b82847fa72767c83a84be51143fa5ae1e4e5ede2e15c027e1879e7edf0d523b0723c58d4260405161174191815260200190565b604081015163ffffffff161580611e3a5750805167ffffffffffffffff1642105b80611e6b57506000816020015167ffffffffffffffff16118015611e6b5750806080015167ffffffffffffffff1642115b15611ea2576040517f830d593c00000000000000000000000000000000000000000000000000000000815260040160405180910390fd5b611eac818461269b565b80610160015115611ec157611ec1828561272b565b50505050565b60008481526006602090815260408083208684528252808320848452909152902080541580611f13575080600081548110611f0457611f046137e5565b90600052602060002001546000145b15611f4757600085815260066020908152604080832087845282528083208584528252909120845161150892860190612d23565b5050505050565b600085815260046020908152604080832087845290915281206005810184905560038101859055608083015161014084015167ffffffffffffffff90911690830361202f576040840151611fa89063ffffffff1642613843565b82544267ffffffffffffffff90811668010000000000000000027fffffffffffffffffffffffffffffffff0000000000000000ffffffffffffffff9184167801000000000000000000000000000000000000000000000000029190911677ffffffffffffffff0000000000000000ffffffffffffffff9092169190911717835590506120a7565b606084015163ffffffff1661204442836139ae565b10156120a757606084015161205f9063ffffffff1642613843565b825477ffffffffffffffffffffffffffffffffffffffffffffffff16780100000000000000000000000000000000000000000000000067ffffffffffffffff83160217835590505b979650505050505050565b60405173ffffffffffffffffffffffffffffffffffffffff83166024820152604481018290526121869084907fa9059cbb00000000000000000000000000000000000000000000000000000000906064015b604080517fffffffffffffffffffffffffffffffffffffffffffffffffffffffffffffffe08184030181529190526020810180517bffffffffffffffffffffffffffffffffffffffffffffffffffffffff167fffffffff0000000000000000000000000000000000000000000000000000000090931692909217909152612822565b505050565b60405173ffffffffffffffffffffffffffffffffffffffff80851660248301528316604482015260648101829052611ec19085907f23b872dd0000000000000000000000000000000000000000000000000000000090608401612104565b60025460009081906122109073ffffffffffffffffffffffffffffffffffffffff16612931565b6000858152600460209081526040808320878452909152902060078101549192509073ffffffffffffffffffffffffffffffffffffffff8316906337d09588908790879061225d906129f4565b600886015461226b906129f4565b60098701546040517fffffffff0000000000000000000000000000000000000000000000000000000060e088901b1681526122b1959493929161ffff16906004016139c1565b600060405180830381600087803b1580156122cb57600080fd5b505af11580156122df573d6000803e3d6000fd5b505050508173ffffffffffffffffffffffffffffffffffffffff1684867f0b227b550ffed48af813b32e246f787e99581ee13206ba8f9d90d63615269b3f4260405161232d91815260200190565b60405180910390a4509392505050565b600080612348612a8b565b9092509050600061271061236061ffff841688613a09565b61236a9190613a20565b9050600061237882886139ae565b905081156123a1576123a173ffffffffffffffffffffffffffffffffffffffff871685846120b2565b845160005b8181101561243e57600061271061ffff168883815181106123c9576123c96137e5565b60200260200101516020015161ffff16856123e49190613a09565b6123ee9190613a20565b905080156124355761243588838151811061240b5761240b6137e5565b60209081029190910101515173ffffffffffffffffffffffffffffffffffffffff8b1690836120b2565b506001016123a6565b505050505050505050565b600080612454612a8b565b9092509050600061271061246c61ffff84168a613a09565b6124769190613a20565b90506000612484828a6139ae565b905081156124ad576124ad73ffffffffffffffffffffffffffffffffffffffff871685846120b2565b600061ffff8916156125e3576127106124ca61ffff8b1684613a09565b6124d49190613a20565b885490915060006124e58284613a20565b905080156125e05760005b828110156125de5760007f000000000000000000000000000000000000000000000000000000000000000073ffffffffffffffffffffffffffffffffffffffff16636352211e8d8481548110612548576125486137e5565b90600052602060002001546040518263ffffffff1660e01b815260040161257191815260200190565b602060405180830381865afa15801561258e573d6000803e3d6000fd5b505050506040513d601f19601f820116820180604052508101906125b291906135bf565b90506125d573ffffffffffffffffffffffffffffffffffffffff8c1682856120b2565b506001016124f0565b505b50505b6125ed81836139ae565b865190925060005b8181101561268d57600061271061ffff16898381518110612618576126186137e5565b60200260200101516020015161ffff16866126339190613a09565b61263d9190613a20565b905080156126845761268489838151811061265a5761265a6137e5565b60209081029190910101515173ffffffffffffffffffffffffffffffffffffffff8c1690836120b2565b506001016125f5565b505050505050505050505050565b610140820151158080156126b257508260a0015182105b806126f45750801580156126f457508260e00151821115806126f4575060008360c001511180156126f4575060c083015160e08401516126f290846139ae565b105b15612186576040517fad25236500000000000000000000000000000000000000000000000000000000815260040160405180910390fd5b808203612736575050565b6040517f47720ebb00000000000000000000000000000000000000000000000000000000815260048101839052602481018290527f000000000000000000000000000000000000000000000000000000000000000073ffffffffffffffffffffffffffffffffffffffff16906347720ebb90604401602060405180830381865afa1580156127c8573d6000803e3d6000fd5b505050506040513d601f19601f820116820180604052508101906127ec9190613300565b6107e1576040517f8b67bbcc00000000000000000000000000000000000000000000000000000000815260040160405180910390fd5b6000612884826040518060400160405280602081526020017f5361666545524332303a206c6f772d6c6576656c2063616c6c206661696c65648152508573ffffffffffffffffffffffffffffffffffffffff16612b249092919063ffffffff16565b90508051600014806128a55750808060200190518101906128a59190613300565b612186576040517f08c379a000000000000000000000000000000000000000000000000000000000815260206004820152602a60248201527f5361666545524332303a204552433230206f7065726174696f6e20646964206e60448201527f6f742073756363656564000000000000000000000000000000000000000000006064820152608401611094565b6000763d602d80600a3d3981f3363d3d373d3d3d363d730000008260601b60e81c176000526e5af43d82803e903d91602b57fd5bf38260781b17602052603760096000f0905073ffffffffffffffffffffffffffffffffffffffff8116610a4e576040517f08c379a000000000000000000000000000000000000000000000000000000000815260206004820152601660248201527f455243313136373a20637265617465206661696c6564000000000000000000006044820152606401611094565b6040805160208082528183019092526060916000919060208201818036833701905050905060005b6020811015612a8457838160208110612a3757612a376137e5565b1a60f81b828281518110612a4d57612a4d6137e5565b60200101907effffffffffffffffffffffffffffffffffffffffffffffffffffffffffffff1916908160001a905350600101612a1c565b5092915050565b6000807f000000000000000000000000000000000000000000000000000000000000000073ffffffffffffffffffffffffffffffffffffffff166398f965d16040518163ffffffff1660e01b81526004016040805180830381865afa158015612af8573d6000803e3d6000fd5b505050506040513d601f19601f82011682018060405250810190612b1c9190613a5b565b915091509091565b6060612b338484600085612b3b565b949350505050565b606082471015612bcd576040517f08c379a000000000000000000000000000000000000000000000000000000000815260206004820152602660248201527f416464726573733a20696e73756666696369656e742062616c616e636520666f60448201527f722063616c6c00000000000000000000000000000000000000000000000000006064820152608401611094565b6000808673ffffffffffffffffffffffffffffffffffffffff168587604051612bf69190613a95565b60006040518083038185875af1925050503d8060008114612c33576040519150601f19603f3d011682016040523d82523d6000602084013e612c38565b606091505b50915091506120a78783838760608315612cda578251600003612cd35773ffffffffffffffffffffffffffffffffffffffff85163b612cd3576040517f08c379a000000000000000000000000000000000000000000000000000000000815260206004820152601d60248201527f416464726573733a2063616c6c20746f206e6f6e2d636f6e74726163740000006044820152606401611094565b5081612b33565b612b338383815115612cef5781518083602001fd5b806040517f08c379a00000000000000000000000000000000000000000000000000000000081526004016110949190612eeb565b828054828255906000526020600020908101928215612d5e579160200282015b82811115612d5e578251825591602001919060010190612d43565b50612d6a929150612d6e565b5090565b5b80821115612d6a5760008155600101612d6f565b600060208284031215612d9557600080fd5b81357fffffffff0000000000000000000000000000000000000000000000000000000081168114611c0d57600080fd5b73ffffffffffffffffffffffffffffffffffffffff811681146110a657600080fd5b600080600080600060808688031215612dff57600080fd5b85359450602086013593506040860135612e1881612dc5565b9250606086013567ffffffffffffffff80821115612e3557600080fd5b818801915088601f830112612e4957600080fd5b813581811115612e5857600080fd5b896020828501011115612e6a57600080fd5b9699959850939650602001949392505050565b60005b83811015612e98578181015183820152602001612e80565b50506000910152565b60008151808452612eb9816020860160208601612e7d565b601f017fffffffffffffffffffffffffffffffffffffffffffffffffffffffffffffffe0169290920160200192915050565b602081526000611c0d6020830184612ea1565b60008060408385031215612f1157600080fd5b50508035926020909101359150565b815167ffffffffffffffff16815261022081016020830151612f4e602084018267ffffffffffffffff169052565b506040830151612f66604084018263ffffffff169052565b506060830151612f7e606084018263ffffffff169052565b506080830151612f9a608084018267ffffffffffffffff169052565b5060a083015160a083015260c083015160c083015260e083015160e083015261010080840151612fcf8285018261ffff169052565b50506101208381015173ffffffffffffffffffffffffffffffffffffffff1690830152610140808401519083015261016080840151151590830152610180808401511515908301526101a0808401511515908301526101c09283015180519383019390935260208301516101e083015260409092015161ffff166102009091015290565b7f4e487b7100000000000000000000000000000000000000000000000000000000600052604160045260246000fd5b6040805190810167ffffffffffffffff811182821017156130a5576130a5613053565b60405290565b604051601f82017fffffffffffffffffffffffffffffffffffffffffffffffffffffffffffffffe016810167ffffffffffffffff811182821017156130f2576130f2613053565b604052919050565b6000602080838503121561310d57600080fd5b823567ffffffffffffffff8082111561312557600080fd5b818501915085601f83011261313957600080fd5b81358181111561314b5761314b613053565b61317b847fffffffffffffffffffffffffffffffffffffffffffffffffffffffffffffffe0601f840116016130ab565b9150808252868482850101111561319157600080fd5b8084840185840137600090820190930192909252509392505050565b60008151808452602080850194506020840160005b83811015613203578151805173ffffffffffffffffffffffffffffffffffffffff16885283015161ffff1683880152604090960195908201906001016131c2565b509495945050505050565b602081526000611c0d60208301846131ad565b60006020828403121561323357600080fd5b813567ffffffffffffffff81111561324a57600080fd5b82016101208185031215611c0d57600080fd5b60006020828403121561326f57600080fd5b8135611c0d81612dc5565b85815284602082015273ffffffffffffffffffffffffffffffffffffffff8416604082015260806060820152816080820152818360a0830137600081830160a090810191909152601f9092017fffffffffffffffffffffffffffffffffffffffffffffffffffffffffffffffe0160101949350505050565b80151581146110a657600080fd5b60006020828403121561331257600080fd5b8151611c0d816132f2565b600181811c9082168061333157607f821691505b60208210810361336a577f4e487b7100000000000000000000000000000000000000000000000000000000600052602260045260246000fd5b50919050565b601f821115612186576000816000526020600020601f850160051c810160208610156133995750805b601f850160051c820191505b81811015611508578281556001016133a5565b815167ffffffffffffffff8111156133d2576133d2613053565b6133e6816133e0845461331d565b84613370565b602080601f83116001811461343957600084156134035750858301515b7fffffffffffffffffffffffffffffffffffffffffffffffffffffffffffffffff600386901b1c1916600185901b178555611508565b6000858152602081207fffffffffffffffffffffffffffffffffffffffffffffffffffffffffffffffe08616915b8281101561348657888601518255948401946001909101908401613467565b50858210156134c257878501517fffffffffffffffffffffffffffffffffffffffffffffffffffffffffffffffff600388901b60f8161c191681555b5050505050600190811b01905550565b60008083357fffffffffffffffffffffffffffffffffffffffffffffffffffffffffffffffe184360301811261350757600080fd5b83018035915067ffffffffffffffff82111561352257600080fd5b60200191503681900382131561353757600080fd5b9250929050565b60006020828403121561355057600080fd5b5035919050565b60008083357fffffffffffffffffffffffffffffffffffffffffffffffffffffffffffffffe184360301811261358c57600080fd5b83018035915067ffffffffffffffff8211156135a757600080fd5b6020019150600581901b360382131561353757600080fd5b6000602082840312156135d157600080fd5b8151611c0d81612dc5565b6000602082840312156135ee57600080fd5b5051919050565b803567ffffffffffffffff81168114610a4e57600080fd5b803563ffffffff81168114610a4e57600080fd5b61ffff811681146110a657600080fd5b8035610a4e81613621565b8035610a4e81612dc5565b600082601f83011261365857600080fd5b8135602067ffffffffffffffff82111561367457613674613053565b613682818360051b016130ab565b82815260069290921b840181019181810190868411156136a157600080fd5b8286015b848110156136f257604081890312156136be5760008081fd5b6136c6613082565b81356136d181612dc5565b8152818501356136e081613621565b818601528352918301916040016136a5565b509695505050505050565b8035610a4e816132f2565b6000806000806000806000806000806000806101808d8f03121561372b57600080fd5b6137348d6135f5565b9b5061374260208e0161360d565b9a5061375060408e0161360d565b995060608d0135985060808d0135975061376c60a08e01613631565b965061377a60c08e0161363c565b955067ffffffffffffffff60e08e0135111561379557600080fd5b6137a58e60e08f01358f01613647565b94506137b46101008e016136fd565b93506101208d013592506101408d013591506137d36101608e01613631565b90509295989b509295989b509295989b565b7f4e487b7100000000000000000000000000000000000000000000000000000000600052603260045260246000fd5b7f4e487b7100000000000000000000000000000000000000000000000000000000600052601160045260246000fd5b808201808211156103ee576103ee613814565b600061018067ffffffffffffffff8f16835263ffffffff808f166020850152808e166040850152508b60608401528a608084015261ffff8a1660a084015273ffffffffffffffffffffffffffffffffffffffff891660c08401528060e08401526138c2818401896131ad565b9150506138d461010083018715159052565b84610120830152836101408301526138f361016083018461ffff169052565b9d9c50505050505050505050505050565b600060e0820160e08352808a54808352610100850191508b60005260209250602060002060005b828110156139475781548452928401926001918201910161392b565b505050809250505087602083015273ffffffffffffffffffffffffffffffffffffffff87166040830152856060830152613999608083018673ffffffffffffffffffffffffffffffffffffffff169052565b60a082019390935260c0015295945050505050565b818103818111156103ee576103ee613814565b85815284602082015260a0604082015260006139e060a0830186612ea1565b82810360608401526139f28186612ea1565b91505061ffff831660808301529695505050505050565b80820281158282048414176103ee576103ee613814565b600082613a56577f4e487b7100000000000000000000000000000000000000000000000000000000600052601260045260246000fd5b500490565b60008060408385031215613a6e57600080fd5b8251613a7981612dc5565b6020840151909250613a8a81613621565b809150509250929050565b60008251613aa7818460208701612e7d565b919091019291505056fea2646970667358221220f7f18d0f1f22281be203a54558db674862905168dd1bf61b6b2efaa924b3500c64736f6c63430008170033",
  "devdoc": {
    "author": "donosonaumczuk, Martijn van Halen and Paul Burke",
    "events": {
      "CollectNFTDeployed(uint256,uint256,address,uint256)": {
        "details": "Emitted when a collectNFT clone is deployed using a lazy deployment pattern.",
        "params": {
          "collectNFT": "The address of the newly deployed collectNFT clone.",
          "profileId": "The publisher's profile token ID.",
          "pubId": "The publication associated with the newly deployed collectNFT clone's ID.",
          "timestamp": "The current block timestamp."
        }
      },
      "Collected(uint256,uint256,uint256,address,address,uint256,uint256)": {
        "details": "Emitted upon a successful collect action.",
        "params": {
          "collectNFT": "The address of the NFT collection where the minted collect NFT belongs to.",
          "collectedProfileId": "The token ID of the profile that published the collected publication.",
          "collectedPubId": "The ID of the collected publication.",
          "collectorProfileId": "The token ID of the profile that collected the publication.",
          "nftRecipient": "The address that received the collect NFT. and depends on the collect module chosen.",
          "timestamp": "The current block timestamp.",
          "tokenId": "The token ID of the collect NFT that was minted as a collect of the publication."
        }
      }
    },
    "kind": "dev",
    "methods": {
      "claim(uint256,uint256)": {
        "details": "Process the collect by ensuring:  1. Underlying publication's auction has finished.  2. Parameters passed matches expected values (collector is the winner, correct referral info & no custom data).  3. Publication has not been collected yet. This function will also process collect fees if they have not been already processed through `processCollectFee`."
      },
      "getAuctionData(uint256,uint256)": {
        "params": {
          "profileId": "The token ID of the profile associated with the underlying publication.",
          "pubId": "The publication ID associated with the underlying publication."
        },
        "returns": {
          "_0": "The auction data for the given publication."
        }
      },
      "initializePublicationAction(uint256,uint256,address,bytes)": {
        "details": "See `AuctionData` struct's natspec in order to understand `data` decoded values."
      },
      "isRegistered()": {
        "details": "Checks if the module is registered in the module registry",
        "returns": {
          "_0": "True if the module is registered, false otherwise"
        }
      },
      "owner()": {
        "details": "Returns the address of the current owner."
      },
      "registerModule()": {
        "details": "Registers the open action in the module registry",
        "returns": {
          "_0": "True if the module was registered, false otherwise"
        }
      },
      "renounceOwnership()": {
        "details": "Leaves the contract without owner. It will not be possible to call `onlyOwner` functions. Can only be called by the current owner. NOTE: Renouncing ownership will leave the contract without an owner, thereby disabling any functionality that is only available to the owner."
      },
      "supportsInterface(bytes4)": {
        "details": "for now we check for keccak('LENS_MODULE'); Override this and add the type(IModuleInterface).interfaceId for corresponding module type"
      },
      "transferOwnership(address)": {
        "details": "Transfers ownership of the contract to a new account (`newOwner`). Can only be called by the current owner."
      }
    },
    "stateVariables": {
      "_referrerProfileIdByPubByProfile": {
        "details": "Maps a given bidder's profile ID to its referrer profile IDs. Referrer matching publication's profile ID means no referral, referrer being zero means that bidder has not bidded yet on this auction. The referrer is set through, and only through, the first bidder's bid on each auction."
      }
    },
    "title": "AuctionCollectActionModule",
    "version": 1
  },
  "userdoc": {
    "kind": "user",
    "methods": {
      "getAuctionData(uint256,uint256)": {
        "notice": "If the given publication has an auction, this function returns all its information."
      },
      "getModuleMetadataURI()": {
        "notice": "Human-readable description of the module"
      },
      "processPublicationAction((uint256,uint256,uint256,address,address,uint256[],uint256[],uint8[],bytes))": {
        "notice": "this open action makes the bid as gasless Open action  params.actionModuleData contains amount The bid amount to offer."
      }
    },
    "notice": "This module works by creating an English auction for the underlying publication. After the auction ends, only the auction winner is allowed to collect the publication.",
    "version": 1
  },
  "storageLayout": {
    "storage": [
      {
        "astId": 7,
        "contract": "contracts/AuctionCollectAction.sol:AuctionCollectAction",
        "label": "_owner",
        "offset": 0,
        "slot": "0",
        "type": "t_address"
      },
      {
        "astId": 11132,
        "contract": "contracts/AuctionCollectAction.sol:AuctionCollectAction",
        "label": "metadataURI",
        "offset": 0,
        "slot": "1",
        "type": "t_string_storage"
      },
      {
        "astId": 3341,
        "contract": "contracts/AuctionCollectAction.sol:AuctionCollectAction",
        "label": "_collectNFTImpl",
        "offset": 0,
        "slot": "2",
        "type": "t_address"
      },
      {
        "astId": 3347,
        "contract": "contracts/AuctionCollectAction.sol:AuctionCollectAction",
        "label": "_collectNFTByPub",
        "offset": 0,
        "slot": "3",
        "type": "t_mapping(t_uint256,t_mapping(t_uint256,t_address))"
      },
      {
        "astId": 3354,
        "contract": "contracts/AuctionCollectAction.sol:AuctionCollectAction",
        "label": "_auctionDataByPubByProfile",
        "offset": 0,
        "slot": "4",
        "type": "t_mapping(t_uint256,t_mapping(t_uint256,t_struct(AuctionData)3163_storage))"
      },
      {
        "astId": 3362,
        "contract": "contracts/AuctionCollectAction.sol:AuctionCollectAction",
        "label": "_recipientsByPublicationByProfile",
        "offset": 0,
        "slot": "5",
        "type": "t_mapping(t_uint256,t_mapping(t_uint256,t_array(t_struct(RecipientData)3122_storage)dyn_storage))"
      },
      {
        "astId": 3372,
        "contract": "contracts/AuctionCollectAction.sol:AuctionCollectAction",
        "label": "_referrerProfileIdByPubByProfile",
        "offset": 0,
        "slot": "6",
        "type": "t_mapping(t_uint256,t_mapping(t_uint256,t_mapping(t_uint256,t_array(t_uint256)dyn_storage)))"
      }
    ],
    "types": {
      "t_address": {
        "encoding": "inplace",
        "label": "address",
        "numberOfBytes": "20"
      },
      "t_array(t_struct(RecipientData)3122_storage)dyn_storage": {
        "base": "t_struct(RecipientData)3122_storage",
        "encoding": "dynamic_array",
        "label": "struct RecipientData[]",
        "numberOfBytes": "32"
      },
      "t_array(t_uint256)dyn_storage": {
        "base": "t_uint256",
        "encoding": "dynamic_array",
        "label": "uint256[]",
        "numberOfBytes": "32"
      },
      "t_bool": {
        "encoding": "inplace",
        "label": "bool",
        "numberOfBytes": "1"
      },
      "t_bytes32": {
        "encoding": "inplace",
        "label": "bytes32",
        "numberOfBytes": "32"
      },
      "t_mapping(t_uint256,t_address)": {
        "encoding": "mapping",
        "key": "t_uint256",
        "label": "mapping(uint256 => address)",
        "numberOfBytes": "32",
        "value": "t_address"
      },
      "t_mapping(t_uint256,t_array(t_struct(RecipientData)3122_storage)dyn_storage)": {
        "encoding": "mapping",
        "key": "t_uint256",
        "label": "mapping(uint256 => struct RecipientData[])",
        "numberOfBytes": "32",
        "value": "t_array(t_struct(RecipientData)3122_storage)dyn_storage"
      },
      "t_mapping(t_uint256,t_array(t_uint256)dyn_storage)": {
        "encoding": "mapping",
        "key": "t_uint256",
        "label": "mapping(uint256 => uint256[])",
        "numberOfBytes": "32",
        "value": "t_array(t_uint256)dyn_storage"
      },
      "t_mapping(t_uint256,t_mapping(t_uint256,t_address))": {
        "encoding": "mapping",
        "key": "t_uint256",
        "label": "mapping(uint256 => mapping(uint256 => address))",
        "numberOfBytes": "32",
        "value": "t_mapping(t_uint256,t_address)"
      },
      "t_mapping(t_uint256,t_mapping(t_uint256,t_array(t_struct(RecipientData)3122_storage)dyn_storage))": {
        "encoding": "mapping",
        "key": "t_uint256",
        "label": "mapping(uint256 => mapping(uint256 => struct RecipientData[]))",
        "numberOfBytes": "32",
        "value": "t_mapping(t_uint256,t_array(t_struct(RecipientData)3122_storage)dyn_storage)"
      },
      "t_mapping(t_uint256,t_mapping(t_uint256,t_array(t_uint256)dyn_storage))": {
        "encoding": "mapping",
        "key": "t_uint256",
        "label": "mapping(uint256 => mapping(uint256 => uint256[]))",
        "numberOfBytes": "32",
        "value": "t_mapping(t_uint256,t_array(t_uint256)dyn_storage)"
      },
      "t_mapping(t_uint256,t_mapping(t_uint256,t_mapping(t_uint256,t_array(t_uint256)dyn_storage)))": {
        "encoding": "mapping",
        "key": "t_uint256",
        "label": "mapping(uint256 => mapping(uint256 => mapping(uint256 => uint256[])))",
        "numberOfBytes": "32",
        "value": "t_mapping(t_uint256,t_mapping(t_uint256,t_array(t_uint256)dyn_storage))"
      },
      "t_mapping(t_uint256,t_mapping(t_uint256,t_struct(AuctionData)3163_storage))": {
        "encoding": "mapping",
        "key": "t_uint256",
        "label": "mapping(uint256 => mapping(uint256 => struct AuctionData))",
        "numberOfBytes": "32",
        "value": "t_mapping(t_uint256,t_struct(AuctionData)3163_storage)"
      },
      "t_mapping(t_uint256,t_struct(AuctionData)3163_storage)": {
        "encoding": "mapping",
        "key": "t_uint256",
        "label": "mapping(uint256 => struct AuctionData)",
        "numberOfBytes": "32",
        "value": "t_struct(AuctionData)3163_storage"
      },
      "t_string_storage": {
        "encoding": "bytes",
        "label": "string",
        "numberOfBytes": "32"
      },
      "t_struct(AuctionData)3163_storage": {
        "encoding": "inplace",
        "label": "struct AuctionData",
        "members": [
          {
            "astId": 3133,
            "contract": "contracts/AuctionCollectAction.sol:AuctionCollectAction",
            "label": "availableSinceTimestamp",
            "offset": 0,
            "slot": "0",
            "type": "t_uint64"
          },
          {
            "astId": 3135,
            "contract": "contracts/AuctionCollectAction.sol:AuctionCollectAction",
            "label": "startTimestamp",
            "offset": 8,
            "slot": "0",
            "type": "t_uint64"
          },
          {
            "astId": 3137,
            "contract": "contracts/AuctionCollectAction.sol:AuctionCollectAction",
            "label": "duration",
            "offset": 16,
            "slot": "0",
            "type": "t_uint32"
          },
          {
            "astId": 3139,
            "contract": "contracts/AuctionCollectAction.sol:AuctionCollectAction",
            "label": "minTimeAfterBid",
            "offset": 20,
            "slot": "0",
            "type": "t_uint32"
          },
          {
            "astId": 3141,
            "contract": "contracts/AuctionCollectAction.sol:AuctionCollectAction",
            "label": "endTimestamp",
            "offset": 24,
            "slot": "0",
            "type": "t_uint64"
          },
          {
            "astId": 3143,
            "contract": "contracts/AuctionCollectAction.sol:AuctionCollectAction",
            "label": "reservePrice",
            "offset": 0,
            "slot": "1",
            "type": "t_uint256"
          },
          {
            "astId": 3145,
            "contract": "contracts/AuctionCollectAction.sol:AuctionCollectAction",
            "label": "minBidIncrement",
            "offset": 0,
            "slot": "2",
            "type": "t_uint256"
          },
          {
            "astId": 3147,
            "contract": "contracts/AuctionCollectAction.sol:AuctionCollectAction",
            "label": "winningBid",
            "offset": 0,
            "slot": "3",
            "type": "t_uint256"
          },
          {
            "astId": 3149,
            "contract": "contracts/AuctionCollectAction.sol:AuctionCollectAction",
            "label": "referralFee",
            "offset": 0,
            "slot": "4",
            "type": "t_uint16"
          },
          {
            "astId": 3151,
            "contract": "contracts/AuctionCollectAction.sol:AuctionCollectAction",
            "label": "currency",
            "offset": 2,
            "slot": "4",
            "type": "t_address"
          },
          {
            "astId": 3153,
            "contract": "contracts/AuctionCollectAction.sol:AuctionCollectAction",
            "label": "winnerProfileId",
            "offset": 0,
            "slot": "5",
            "type": "t_uint256"
          },
          {
            "astId": 3155,
            "contract": "contracts/AuctionCollectAction.sol:AuctionCollectAction",
            "label": "onlyFollowers",
            "offset": 0,
            "slot": "6",
            "type": "t_bool"
          },
          {
            "astId": 3157,
            "contract": "contracts/AuctionCollectAction.sol:AuctionCollectAction",
            "label": "collected",
            "offset": 1,
            "slot": "6",
            "type": "t_bool"
          },
          {
            "astId": 3159,
            "contract": "contracts/AuctionCollectAction.sol:AuctionCollectAction",
            "label": "feeProcessed",
            "offset": 2,
            "slot": "6",
            "type": "t_bool"
          },
          {
            "astId": 3162,
            "contract": "contracts/AuctionCollectAction.sol:AuctionCollectAction",
            "label": "tokenData",
            "offset": 0,
            "slot": "7",
            "type": "t_struct(TokenData)3130_storage"
          }
        ],
        "numberOfBytes": "320"
      },
      "t_struct(RecipientData)3122_storage": {
        "encoding": "inplace",
        "label": "struct RecipientData",
        "members": [
          {
            "astId": 3119,
            "contract": "contracts/AuctionCollectAction.sol:AuctionCollectAction",
            "label": "recipient",
            "offset": 0,
            "slot": "0",
            "type": "t_address"
          },
          {
            "astId": 3121,
            "contract": "contracts/AuctionCollectAction.sol:AuctionCollectAction",
            "label": "split",
            "offset": 20,
            "slot": "0",
            "type": "t_uint16"
          }
        ],
        "numberOfBytes": "32"
      },
      "t_struct(TokenData)3130_storage": {
        "encoding": "inplace",
        "label": "struct TokenData",
        "members": [
          {
            "astId": 3125,
            "contract": "contracts/AuctionCollectAction.sol:AuctionCollectAction",
            "label": "name",
            "offset": 0,
            "slot": "0",
            "type": "t_bytes32"
          },
          {
            "astId": 3127,
            "contract": "contracts/AuctionCollectAction.sol:AuctionCollectAction",
            "label": "symbol",
            "offset": 0,
            "slot": "1",
            "type": "t_bytes32"
          },
          {
            "astId": 3129,
            "contract": "contracts/AuctionCollectAction.sol:AuctionCollectAction",
            "label": "royalty",
            "offset": 0,
            "slot": "2",
            "type": "t_uint16"
          }
        ],
        "numberOfBytes": "96"
      },
      "t_uint16": {
        "encoding": "inplace",
        "label": "uint16",
        "numberOfBytes": "2"
      },
      "t_uint256": {
        "encoding": "inplace",
        "label": "uint256",
        "numberOfBytes": "32"
      },
      "t_uint32": {
        "encoding": "inplace",
        "label": "uint32",
        "numberOfBytes": "4"
      },
      "t_uint64": {
        "encoding": "inplace",
        "label": "uint64",
        "numberOfBytes": "8"
      }
    }
  }
}